{
  "_format": "hh-sol-artifact-1",
  "contractName": "Poap",
  "sourceName": "contracts/Poap.sol",
  "abi": [
    {
      "constant": true,
      "inputs": [
        {
          "name": "interfaceId",
          "type": "bytes4"
        }
      ],
      "name": "supportsInterface",
      "outputs": [
        {
          "name": "",
          "type": "bool"
        }
      ],
      "payable": false,
      "stateMutability": "view",
      "type": "function"
    },
    {
      "constant": false,
      "inputs": [
        {
          "name": "eventId",
          "type": "uint256"
        }
      ],
      "name": "renounceEventMinter",
      "outputs": [],
      "payable": false,
      "stateMutability": "nonpayable",
      "type": "function"
    },
    {
      "constant": true,
      "inputs": [],
      "name": "name",
      "outputs": [
        {
          "name": "",
          "type": "string"
        }
      ],
      "payable": false,
      "stateMutability": "view",
      "type": "function"
    },
    {
      "constant": true,
      "inputs": [
        {
          "name": "tokenId",
          "type": "uint256"
        }
      ],
      "name": "getApproved",
      "outputs": [
        {
          "name": "",
          "type": "address"
        }
      ],
      "payable": false,
      "stateMutability": "view",
      "type": "function"
    },
    {
      "constant": false,
      "inputs": [
        {
          "name": "to",
          "type": "address"
        },
        {
          "name": "tokenId",
          "type": "uint256"
        }
      ],
      "name": "approve",
      "outputs": [],
      "payable": false,
      "stateMutability": "nonpayable",
      "type": "function"
    },
    {
      "constant": true,
      "inputs": [
        {
          "name": "tokenId",
          "type": "uint256"
        }
      ],
      "name": "tokenEvent",
      "outputs": [
        {
          "name": "",
          "type": "uint256"
        }
      ],
      "payable": false,
      "stateMutability": "view",
      "type": "function"
    },
    {
      "constant": false,
      "inputs": [
        {
          "name": "eventId",
          "type": "uint256"
        },
        {
          "name": "account",
          "type": "address"
        }
      ],
      "name": "removeEventMinter",
      "outputs": [],
      "payable": false,
      "stateMutability": "nonpayable",
      "type": "function"
    },
    {
      "constant": false,
      "inputs": [
        {
          "name": "account",
          "type": "address"
        }
      ],
      "name": "removeAdmin",
      "outputs": [],
      "payable": false,
      "stateMutability": "nonpayable",
      "type": "function"
    },
    {
      "constant": true,
      "inputs": [],
      "name": "totalSupply",
      "outputs": [
        {
          "name": "",
          "type": "uint256"
        }
      ],
      "payable": false,
      "stateMutability": "view",
      "type": "function"
    },
    {
      "constant": false,
      "inputs": [
        {
          "name": "from",
          "type": "address"
        },
        {
          "name": "to",
          "type": "address"
        },
        {
          "name": "tokenId",
          "type": "uint256"
        }
      ],
      "name": "transferFrom",
      "outputs": [],
      "payable": false,
      "stateMutability": "nonpayable",
      "type": "function"
    },
    {
      "constant": true,
      "inputs": [
        {
          "name": "account",
          "type": "address"
        }
      ],
      "name": "isAdmin",
      "outputs": [
        {
          "name": "",
          "type": "bool"
        }
      ],
      "payable": false,
      "stateMutability": "view",
      "type": "function"
    },
    {
      "constant": false,
      "inputs": [
        {
          "name": "eventId",
          "type": "uint256"
        },
        {
          "name": "to",
          "type": "address[]"
        }
      ],
      "name": "mintEventToManyUsers",
      "outputs": [
        {
          "name": "",
          "type": "bool"
        }
      ],
      "payable": false,
      "stateMutability": "nonpayable",
      "type": "function"
    },
    {
      "constant": true,
      "inputs": [
        {
          "name": "eventId",
          "type": "uint256"
        },
        {
          "name": "account",
          "type": "address"
        }
      ],
      "name": "isEventMinter",
      "outputs": [
        {
          "name": "",
          "type": "bool"
        }
      ],
      "payable": false,
      "stateMutability": "view",
      "type": "function"
    },
    {
      "constant": true,
      "inputs": [
        {
          "name": "owner",
          "type": "address"
        },
        {
          "name": "index",
          "type": "uint256"
        }
      ],
      "name": "tokenOfOwnerByIndex",
      "outputs": [
        {
          "name": "",
          "type": "uint256"
        }
      ],
      "payable": false,
      "stateMutability": "view",
      "type": "function"
    },
    {
      "constant": false,
      "inputs": [],
      "name": "unpause",
      "outputs": [],
      "payable": false,
      "stateMutability": "nonpayable",
      "type": "function"
    },
    {
      "constant": false,
      "inputs": [
        {
          "name": "from",
          "type": "address"
        },
        {
          "name": "to",
          "type": "address"
        },
        {
          "name": "tokenId",
          "type": "uint256"
        }
      ],
      "name": "safeTransferFrom",
      "outputs": [],
      "payable": false,
      "stateMutability": "nonpayable",
      "type": "function"
    },
    {
      "constant": false,
      "inputs": [
        {
          "name": "tokenId",
          "type": "uint256"
        }
      ],
      "name": "burn",
      "outputs": [],
      "payable": false,
      "stateMutability": "nonpayable",
      "type": "function"
    },
    {
      "constant": true,
      "inputs": [
        {
          "name": "index",
          "type": "uint256"
        }
      ],
      "name": "tokenByIndex",
      "outputs": [
        {
          "name": "",
          "type": "uint256"
        }
      ],
      "payable": false,
      "stateMutability": "view",
      "type": "function"
    },
    {
      "constant": false,
      "inputs": [
        {
          "name": "baseURI",
          "type": "string"
        }
      ],
      "name": "setBaseURI",
      "outputs": [],
      "payable": false,
      "stateMutability": "nonpayable",
      "type": "function"
    },
    {
      "constant": true,
      "inputs": [],
      "name": "paused",
      "outputs": [
        {
          "name": "",
          "type": "bool"
        }
      ],
      "payable": false,
      "stateMutability": "view",
      "type": "function"
    },
    {
      "constant": true,
      "inputs": [
        {
          "name": "tokenId",
          "type": "uint256"
        }
      ],
      "name": "ownerOf",
      "outputs": [
        {
          "name": "",
          "type": "address"
        }
      ],
      "payable": false,
      "stateMutability": "view",
      "type": "function"
    },
    {
      "constant": true,
      "inputs": [
        {
          "name": "owner",
          "type": "address"
        },
        {
          "name": "index",
          "type": "uint256"
        }
      ],
      "name": "tokenDetailsOfOwnerByIndex",
      "outputs": [
        {
          "name": "tokenId",
          "type": "uint256"
        },
        {
          "name": "eventId",
          "type": "uint256"
        }
      ],
      "payable": false,
      "stateMutability": "view",
      "type": "function"
    },
    {
      "constant": false,
      "inputs": [
        {
          "name": "account",
          "type": "address"
        }
      ],
      "name": "addAdmin",
      "outputs": [],
      "payable": false,
      "stateMutability": "nonpayable",
      "type": "function"
    },
    {
      "constant": true,
      "inputs": [
        {
          "name": "owner",
          "type": "address"
        }
      ],
      "name": "balanceOf",
      "outputs": [
        {
          "name": "",
          "type": "uint256"
        }
      ],
      "payable": false,
      "stateMutability": "view",
      "type": "function"
    },
    {
      "constant": false,
      "inputs": [],
      "name": "initialize",
      "outputs": [],
      "payable": false,
      "stateMutability": "nonpayable",
      "type": "function"
    },
    {
      "constant": false,
      "inputs": [],
      "name": "pause",
      "outputs": [],
      "payable": false,
      "stateMutability": "nonpayable",
      "type": "function"
    },
    {
      "constant": false,
      "inputs": [],
      "name": "renounceAdmin",
      "outputs": [],
      "payable": false,
      "stateMutability": "nonpayable",
      "type": "function"
    },
    {
      "constant": false,
      "inputs": [
        {
          "name": "__name",
          "type": "string"
        },
        {
          "name": "__symbol",
          "type": "string"
        },
        {
          "name": "__baseURI",
          "type": "string"
        },
        {
          "name": "admins",
          "type": "address[]"
        }
      ],
      "name": "initialize",
      "outputs": [],
      "payable": false,
      "stateMutability": "nonpayable",
      "type": "function"
    },
    {
      "constant": true,
      "inputs": [],
      "name": "symbol",
      "outputs": [
        {
          "name": "",
          "type": "string"
        }
      ],
      "payable": false,
      "stateMutability": "view",
      "type": "function"
    },
    {
      "constant": false,
      "inputs": [
        {
          "name": "eventId",
          "type": "uint256"
        },
        {
          "name": "account",
          "type": "address"
        }
      ],
      "name": "addEventMinter",
      "outputs": [],
      "payable": false,
      "stateMutability": "nonpayable",
      "type": "function"
    },
    {
      "constant": false,
      "inputs": [
        {
          "name": "eventId",
          "type": "uint256"
        },
        {
          "name": "to",
          "type": "address"
        }
      ],
      "name": "mintToken",
      "outputs": [
        {
          "name": "",
          "type": "bool"
        }
      ],
      "payable": false,
      "stateMutability": "nonpayable",
      "type": "function"
    },
    {
      "constant": false,
      "inputs": [
        {
          "name": "to",
          "type": "address"
        },
        {
          "name": "approved",
          "type": "bool"
        }
      ],
      "name": "setApprovalForAll",
      "outputs": [],
      "payable": false,
      "stateMutability": "nonpayable",
      "type": "function"
    },
    {
      "constant": false,
      "inputs": [
        {
          "name": "from",
          "type": "address"
        },
        {
          "name": "to",
          "type": "address"
        },
        {
          "name": "tokenId",
          "type": "uint256"
        },
        {
          "name": "_data",
          "type": "bytes"
        }
      ],
      "name": "safeTransferFrom",
      "outputs": [],
      "payable": false,
      "stateMutability": "nonpayable",
      "type": "function"
    },
    {
      "constant": false,
      "inputs": [
        {
          "name": "sender",
          "type": "address"
        }
      ],
      "name": "initialize",
      "outputs": [],
      "payable": false,
      "stateMutability": "nonpayable",
      "type": "function"
    },
    {
      "constant": true,
      "inputs": [
        {
          "name": "tokenId",
          "type": "uint256"
        }
      ],
      "name": "tokenURI",
      "outputs": [
        {
          "name": "",
          "type": "string"
        }
      ],
      "payable": false,
      "stateMutability": "view",
      "type": "function"
    },
    {
      "constant": false,
      "inputs": [
        {
          "name": "eventId",
          "type": "uint256"
        },
        {
          "name": "tokenId",
          "type": "uint256"
        },
        {
          "name": "to",
          "type": "address"
        }
      ],
      "name": "mintToken",
      "outputs": [
        {
          "name": "",
          "type": "bool"
        }
      ],
      "payable": false,
      "stateMutability": "nonpayable",
      "type": "function"
    },
    {
      "constant": true,
      "inputs": [
        {
          "name": "owner",
          "type": "address"
        },
        {
          "name": "operator",
          "type": "address"
        }
      ],
      "name": "isApprovedForAll",
      "outputs": [
        {
          "name": "",
          "type": "bool"
        }
      ],
      "payable": false,
      "stateMutability": "view",
      "type": "function"
    },
    {
      "constant": false,
      "inputs": [
        {
          "name": "eventIds",
          "type": "uint256[]"
        },
        {
          "name": "to",
          "type": "address"
        }
      ],
      "name": "mintUserToManyEvents",
      "outputs": [
        {
          "name": "",
          "type": "bool"
        }
      ],
      "payable": false,
      "stateMutability": "nonpayable",
      "type": "function"
    },
    {
      "anonymous": false,
      "inputs": [
        {
          "indexed": false,
          "name": "eventId",
          "type": "uint256"
        },
        {
          "indexed": false,
          "name": "tokenId",
          "type": "uint256"
        }
      ],
      "name": "EventToken",
      "type": "event"
    },
    {
      "anonymous": false,
      "inputs": [
        {
          "indexed": false,
          "name": "account",
          "type": "address"
        }
      ],
      "name": "Paused",
      "type": "event"
    },
    {
      "anonymous": false,
      "inputs": [
        {
          "indexed": false,
          "name": "account",
          "type": "address"
        }
      ],
      "name": "Unpaused",
      "type": "event"
    },
    {
      "anonymous": false,
      "inputs": [
        {
          "indexed": true,
          "name": "account",
          "type": "address"
        }
      ],
      "name": "AdminAdded",
      "type": "event"
    },
    {
      "anonymous": false,
      "inputs": [
        {
          "indexed": true,
          "name": "account",
          "type": "address"
        }
      ],
      "name": "AdminRemoved",
      "type": "event"
    },
    {
      "anonymous": false,
      "inputs": [
        {
          "indexed": true,
          "name": "eventId",
          "type": "uint256"
        },
        {
          "indexed": true,
          "name": "account",
          "type": "address"
        }
      ],
      "name": "EventMinterAdded",
      "type": "event"
    },
    {
      "anonymous": false,
      "inputs": [
        {
          "indexed": true,
          "name": "eventId",
          "type": "uint256"
        },
        {
          "indexed": true,
          "name": "account",
          "type": "address"
        }
      ],
      "name": "EventMinterRemoved",
      "type": "event"
    },
    {
      "anonymous": false,
      "inputs": [
        {
          "indexed": true,
          "name": "from",
          "type": "address"
        },
        {
          "indexed": true,
          "name": "to",
          "type": "address"
        },
        {
          "indexed": true,
          "name": "tokenId",
          "type": "uint256"
        }
      ],
      "name": "Transfer",
      "type": "event"
    },
    {
      "anonymous": false,
      "inputs": [
        {
          "indexed": true,
          "name": "owner",
          "type": "address"
        },
        {
          "indexed": true,
          "name": "approved",
          "type": "address"
        },
        {
          "indexed": true,
          "name": "tokenId",
          "type": "uint256"
        }
      ],
      "name": "Approval",
      "type": "event"
    },
    {
      "anonymous": false,
      "inputs": [
        {
          "indexed": true,
          "name": "owner",
          "type": "address"
        },
        {
          "indexed": true,
          "name": "operator",
          "type": "address"
        },
        {
          "indexed": false,
          "name": "approved",
          "type": "bool"
        }
      ],
      "name": "ApprovalForAll",
      "type": "event"
    }
  ],
  "bytecode": "0x6080604052620000387f01ffc9a700000000000000000000000000000000000000000000000000000000640100000000620000a6810204565b6200006c7f80ac58cd00000000000000000000000000000000000000000000000000000000640100000000620000a6810204565b620000a07f780e9d6300000000000000000000000000000000000000000000000000000000640100000000620000a6810204565b62000175565b7fffffffff0000000000000000000000000000000000000000000000000000000080821614156200013857604080517f08c379a000000000000000000000000000000000000000000000000000000000815260206004820152601c60248201527f4552433136353a20696e76616c696420696e7465726661636520696400000000604482015290519081900360640190fd5b7fffffffff00000000000000000000000000000000000000000000000000000000166000908152603360205260409020805460ff19166001179055565b61339280620001856000396000f3fe6080604052600436106101d75763ffffffff7c010000000000000000000000000000000000000000000000000000000060003504166301ffc9a781146101dc57806302c37ddc1461023c57806306fdde0314610268578063081812fc146102f2578063095ea7b314610338578063127a529814610371578063166c4b05146103ad5780631785f53c146103e657806318160ddd1461041957806323b872dd1461042e57806324d7806c14610471578063278d9c41146104a457806328db38b41461055b5780632f745c59146105945780633f4ba83a146105cd57806342842e0e146105e257806342966c68146106255780634f6ccce71461064f57806355f804b3146106795780635c975abb1461072c5780636352211e1461074157806367e971ce1461076b57806370480275146107bd57806370a08231146107f05780638129fc1c146108235780638456cb59146108385780638bad0c0a1461084d5780638d2320941461086257806395d89b4114610aa75780639cd3cad614610abc578063a140ae2314610af5578063a22cb46514610b2e578063b88d4fde14610b69578063c4d66de814610c3c578063c87b56dd14610c6f578063d890c8e214610c99578063e985e9c514610cd8578063f980f3dc14610d13575b600080fd5b3480156101e857600080fd5b50610228600480360360208110156101ff57600080fd5b50357fffffffff0000000000000000000000000000000000000000000000000000000016610dce565b604080519115158252519081900360200190f35b34801561024857600080fd5b506102666004803603602081101561025f57600080fd5b5035610e09565b005b34801561027457600080fd5b5061027d610e16565b6040805160208082528351818301528351919283929083019185019080838360005b838110156102b757818101518382015260200161029f565b50505050905090810190601f1680156102e45780820380516001836020036101000a031916815260200191505b509250505060405180910390f35b3480156102fe57600080fd5b5061031c6004803603602081101561031557600080fd5b5035610ead565b60408051600160a060020a039092168252519081900360200190f35b34801561034457600080fd5b506102666004803603604081101561035b57600080fd5b50600160a060020a038135169060200135610f55565b34801561037d57600080fd5b5061039b6004803603602081101561039457600080fd5b5035610f73565b60408051918252519081900360200190f35b3480156103b957600080fd5b50610266600480360360408110156103d057600080fd5b5080359060200135600160a060020a0316610f85565b3480156103f257600080fd5b506102666004803603602081101561040957600080fd5b5035600160a060020a0316610fa3565b34801561042557600080fd5b5061039b610fc0565b34801561043a57600080fd5b506102666004803603606081101561045157600080fd5b50600160a060020a03813581169160208101359091169060400135610fc6565b34801561047d57600080fd5b506102286004803603602081101561049457600080fd5b5035600160a060020a0316610fe6565b3480156104b057600080fd5b50610228600480360360408110156104c757600080fd5b813591908101906040810160208201356401000000008111156104e957600080fd5b8201836020820111156104fb57600080fd5b8035906020019184602083028401116401000000008311171561051d57600080fd5b919080806020026020016040519081016040528093929190818152602001838360200280828437600092019190915250929550610fff945050505050565b34801561056757600080fd5b506102286004803603604081101561057e57600080fd5b5080359060200135600160a060020a031661107b565b3480156105a057600080fd5b5061039b600480360360408110156105b757600080fd5b50600160a060020a0381351690602001356110b1565b3480156105d957600080fd5b50610266611174565b3480156105ee57600080fd5b506102666004803603606081101561060557600080fd5b50600160a060020a038135811691602081013590911690604001356111d8565b34801561063157600080fd5b506102666004803603602081101561064857600080fd5b50356111f4565b34801561065b57600080fd5b5061039b6004803603602081101561067257600080fd5b5035611221565b34801561068557600080fd5b506102666004803603602081101561069c57600080fd5b8101906020810181356401000000008111156106b757600080fd5b8201836020820111156106c957600080fd5b803590602001918460018302840111640100000000831117156106eb57600080fd5b91908080601f0160208091040260200160405190810160405280939291908181526020018383808284376000920191909152509295506112cc945050505050565b34801561073857600080fd5b50610228611303565b34801561074d57600080fd5b5061031c6004803603602081101561076457600080fd5b503561130c565b34801561077757600080fd5b506107a46004803603604081101561078e57600080fd5b50600160a060020a0381351690602001356113a6565b6040805192835260208301919091528051918290030190f35b3480156107c957600080fd5b50610266600480360360208110156107e057600080fd5b5035600160a060020a03166113c7565b3480156107fc57600080fd5b5061039b6004803603602081101561081357600080fd5b5035600160a060020a03166113e4565b34801561082f57600080fd5b50610266611492565b34801561084457600080fd5b50610266611583565b34801561085957600080fd5b506102666115e9565b34801561086e57600080fd5b506102666004803603608081101561088557600080fd5b8101906020810181356401000000008111156108a057600080fd5b8201836020820111156108b257600080fd5b803590602001918460018302840111640100000000831117156108d457600080fd5b91908080601f016020809104026020016040519081016040528093929190818152602001838380828437600092019190915250929594936020810193503591505064010000000081111561092757600080fd5b82018360208201111561093957600080fd5b8035906020019184600183028401116401000000008311171561095b57600080fd5b91908080601f01602080910402602001604051908101604052809392919081815260200183838082843760009201919091525092959493602081019350359150506401000000008111156109ae57600080fd5b8201836020820111156109c057600080fd5b803590602001918460018302840111640100000000831117156109e257600080fd5b91908080601f0160208091040260200160405190810160405280939291908181526020018383808284376000920191909152509295949360208101935035915050640100000000811115610a3557600080fd5b820183602082011115610a4757600080fd5b80359060200191846020830284011164010000000083111715610a6957600080fd5b9190808060200260200160405190810160405280939291908181526020018383602002808284376000920191909152509295506115f4945050505050565b348015610ab357600080fd5b5061027d61178b565b348015610ac857600080fd5b5061026660048036036040811015610adf57600080fd5b5080359060200135600160a060020a03166117ec565b348015610b0157600080fd5b5061022860048036036040811015610b1857600080fd5b5080359060200135600160a060020a031661180c565b348015610b3a57600080fd5b5061026660048036036040811015610b5157600080fd5b50600160a060020a0381351690602001351515611854565b348015610b7557600080fd5b5061026660048036036080811015610b8c57600080fd5b600160a060020a03823581169260208101359091169160408201359190810190608081016060820135640100000000811115610bc757600080fd5b820183602082011115610bd957600080fd5b80359060200191846001830284011164010000000083111715610bfb57600080fd5b91908080601f01602080910402602001604051908101604052809392919081815260200183838082843760009201919091525092955061186e945050505050565b348015610c4857600080fd5b5061026660048036036020811015610c5f57600080fd5b5035600160a060020a031661190c565b348015610c7b57600080fd5b5061027d60048036036020811015610c9257600080fd5b5035611a0c565b348015610ca557600080fd5b5061022860048036036060811015610cbc57600080fd5b5080359060208101359060400135600160a060020a0316611b0b565b348015610ce457600080fd5b5061022860048036036040811015610cfb57600080fd5b50600160a060020a0381358116916020013516611b48565b348015610d1f57600080fd5b5061022860048036036040811015610d3657600080fd5b810190602081018135640100000000811115610d5157600080fd5b820183602082011115610d6357600080fd5b80359060200191846020830284011164010000000083111715610d8557600080fd5b91908080602002602001604051908101604052809392919081815260200183836020028082843760009201919091525092955050509035600160a060020a03169150611b769050565b7fffffffff00000000000000000000000000000000000000000000000000000000811660009081526033602052604090205460ff165b919050565b610e138133611bee565b50565b60a38054604080516020601f6002600019610100600188161502019095169490940493840181900481028201810190925282815260609390929091830182828015610ea25780601f10610e7757610100808354040283529160200191610ea2565b820191906000526020600020905b815481529060010190602001808311610e8557829003601f168201915b505050505090505b90565b6000610eb882611c46565b1515610f395760408051600080516020613347833981519152815260206004820152602c60248201527f4552433732313a20617070726f76656420717565727920666f72206e6f6e657860448201527f697374656e7420746f6b656e0000000000000000000000000000000000000000606482015290519081900360840190fd5b50600090815260356020526040902054600160a060020a031690565b60705460ff1615610f6557600080fd5b610f6f8282611c63565b5050565b600090815260a7602052604090205490565b610f8e33610fe6565b1515610f9957600080fd5b610f6f8282611bee565b610fac33610fe6565b1515610fb757600080fd5b610e1381611e05565b603a5490565b60705460ff1615610fd657600080fd5b610fe1838383611e4d565b505050565b6000610ff9603c8363ffffffff611ee316565b92915050565b60705460009060ff161561101257600080fd5b8261101d813361107b565b151561102857600080fd5b60005b83518110156110665761105d858260a65460010101868481518110151561104e57fe5b90602001906020020151611f90565b5060010161102b565b5050905160a680549091019055506001919050565b600061108682610fe6565b806110aa57506000838152603d602052604090206110aa908363ffffffff611ee316565b9392505050565b60006110bc836113e4565b821061113d5760408051600080516020613347833981519152815260206004820152602b60248201527f455243373231456e756d657261626c653a206f776e657220696e646578206f7560448201527f74206f6620626f756e6473000000000000000000000000000000000000000000606482015290519081900360840190fd5b600160a060020a038316600090815260386020526040902080548390811061116157fe5b9060005260206000200154905092915050565b61117d33610fe6565b151561118857600080fd5b60705460ff16151561119957600080fd5b6070805460ff191690556040805133815290517f5db9ee0a495bf2e6ff9c91a7834c1ba4fdd244a5e8aa4e537bd38aeae4b073aa9181900360200190a1565b610fe1838383602060405190810160405280600081525061186e565b6111fe3382611ff3565b8061120d575061120d33610fe6565b151561121857600080fd5b610e13816120d5565b600061122b610fc0565b82106112ac5760408051600080516020613347833981519152815260206004820152602c60248201527f455243373231456e756d657261626c653a20676c6f62616c20696e646578206f60448201527f7574206f6620626f756e64730000000000000000000000000000000000000000606482015290519081900360840190fd5b603a8054839081106112ba57fe5b90600052602060002001549050919050565b6112d533610fe6565b15156112e057600080fd5b60705460ff16156112f057600080fd5b8051610f6f9060a590602084019061328e565b60705460ff1690565b600081815260346020526040812054600160a060020a0316801515610ff95760408051600080516020613347833981519152815260206004820152602960248201527f4552433732313a206f776e657220717565727920666f72206e6f6e657869737460448201527f656e7420746f6b656e0000000000000000000000000000000000000000000000606482015290519081900360840190fd5b6000806113b384846110b1565b91506113be82610f73565b90509250929050565b6113d033610fe6565b15156113db57600080fd5b610e13816120e7565b6000600160a060020a03821615156114715760408051600080516020613347833981519152815260206004820152602a60248201527f4552433732313a2062616c616e636520717565727920666f7220746865207a6560448201527f726f206164647265737300000000000000000000000000000000000000000000606482015290519081900360840190fd5b600160a060020a0382166000908152603660205260409020610ff99061212f565b600054610100900460ff16806114ab57506114ab612133565b806114b9575060005460ff16155b151561153a5760408051600080516020613347833981519152815260206004820152602e60248201527f436f6e747261637420696e7374616e63652068617320616c726561647920626560448201527f656e20696e697469616c697a6564000000000000000000000000000000000000606482015290519081900360840190fd5b600054610100900460ff16158015611565576000805460ff1961ff0019909116610100171660011790555b6070805460ff191690558015610e13576000805461ff001916905550565b61158c33610fe6565b151561159757600080fd5b60705460ff16156115a757600080fd5b6070805460ff191660011790556040805133815290517f62e78cea01bee320cd4e420270b5ea74000d11b0c9f74754ebdbfc544b05a2589181900360200190a1565b6115f233611e05565b565b600054610100900460ff168061160d575061160d612133565b8061161b575060005460ff16155b151561169c5760408051600080516020613347833981519152815260206004820152602e60248201527f436f6e747261637420696e7374616e63652068617320616c726561647920626560448201527f656e20696e697469616c697a6564000000000000000000000000000000000000606482015290519081900360840190fd5b600054610100900460ff161580156116c7576000805460ff1961ff0019909116610100171660011790555b6116d03361190c565b6116d8611492565b60005b825181101561170c5761170483828151811015156116f557fe5b906020019060200201516120e7565b6001016116db565b5084516117209060a390602088019061328e565b5083516117349060a490602087019061328e565b5082516117489060a590602086019061328e565b506117727f5b5e139f00000000000000000000000000000000000000000000000000000000612139565b8015611784576000805461ff00191690555b5050505050565b60a48054604080516020601f6002600019610100600188161502019095169490940493840181900481028201810190925282815260609390929091830182828015610ea25780601f10610e7757610100808354040283529160200191610ea2565b816117f7813361107b565b151561180257600080fd5b610fe183836121f5565b60705460009060ff161561181f57600080fd5b8261182a813361107b565b151561183557600080fd5b60a680546001019081905561184c90859085611f90565b949350505050565b60705460ff161561186457600080fd5b610f6f828261224d565b611879848484610fc6565b61188584848484612321565b15156119065760408051600080516020613347833981519152815260206004820152603260248201527f4552433732313a207472616e7366657220746f206e6f6e20455243373231526560448201527f63656976657220696d706c656d656e7465720000000000000000000000000000606482015290519081900360840190fd5b50505050565b600054610100900460ff16806119255750611925612133565b80611933575060005460ff16155b15156119b45760408051600080516020613347833981519152815260206004820152602e60248201527f436f6e747261637420696e7374616e63652068617320616c726561647920626560448201527f656e20696e697469616c697a6564000000000000000000000000000000000000606482015290519081900360840190fd5b600054610100900460ff161580156119df576000805460ff1961ff0019909116610100171660011790555b6119e882610fe6565b15156119f7576119f7826120e7565b8015610f6f576000805461ff00191690555050565b600081815260a760209081526040918290205460a580548451601f6002600019610100600186161502019093169290920491820185900485028101850190955280855260609492936110aa93929190830182828015611aac5780601f10611a8157610100808354040283529160200191611aac565b820191906000526020600020905b815481529060010190602001808311611a8f57829003601f168201915b5050505050611aba836124a0565b60408051808201909152600181527f2f000000000000000000000000000000000000000000000000000000000000006020820152611af7876124a0565b6040805160208101909152600081526125b8565b60705460009060ff1615611b1e57600080fd5b83611b29813361107b565b1515611b3457600080fd5b611b3f858585611f90565b95945050505050565b600160a060020a03918216600090815260376020908152604080832093909416825291909152205460ff1690565b60705460009060ff1615611b8957600080fd5b611b9233610fe6565b1515611b9d57600080fd5b60005b8351811015611bdb57611bd28482815181101515611bba57fe5b906020019060200201518260a6546001010185611f90565b50600101611ba0565b5050905160a68054909101905550600190565b6000828152603d60205260409020611c0c908263ffffffff61299d16565b604051600160a060020a0382169083907fb6882c4d609d560f6d57e78e73dd96027f0d9852739b0b922537a6dd3c8e944c90600090a35050565b600090815260346020526040902054600160a060020a0316151590565b6000611c6e8261130c565b9050600160a060020a038381169082161415611cff5760408051600080516020613347833981519152815260206004820152602160248201527f4552433732313a20617070726f76616c20746f2063757272656e74206f776e6560448201527f7200000000000000000000000000000000000000000000000000000000000000606482015290519081900360840190fd5b33600160a060020a0382161480611d1b5750611d1b8133611b48565b1515611d9c5760408051600080516020613347833981519152815260206004820152603860248201527f4552433732313a20617070726f76652063616c6c6572206973206e6f74206f7760448201527f6e6572206e6f7220617070726f76656420666f7220616c6c0000000000000000606482015290519081900360840190fd5b600082815260356020526040808220805473ffffffffffffffffffffffffffffffffffffffff1916600160a060020a0387811691821790925591518593918516917f8c5be1e5ebec7d5bd14f71427d1e84f3dd0314c0f7b2291e5b200ac8c7c3b92591a4505050565b611e16603c8263ffffffff61299d16565b604051600160a060020a038216907fa3b62bc36326052d97ea62d63c3d60308ed4c3ea8ac079dd8499f1e9c4f80c0f90600090a250565b611e573382611ff3565b1515611ed85760408051600080516020613347833981519152815260206004820152603160248201527f4552433732313a207472616e736665722063616c6c6572206973206e6f74206f60448201527f776e6572206e6f7220617070726f766564000000000000000000000000000000606482015290519081900360840190fd5b610fe1838383612a4a565b6000600160a060020a0382161515611f705760408051600080516020613347833981519152815260206004820152602260248201527f526f6c65733a206163636f756e7420697320746865207a65726f20616464726560448201527f7373000000000000000000000000000000000000000000000000000000000000606482015290519081900360840190fd5b50600160a060020a03166000908152602091909152604090205460ff1690565b6000611f9c8284612a69565b600083815260a76020908152604091829020869055815186815290810185905281517f4b3711cd7ece062b0828c1b6e08d814a72d4c003383a016c833cbb1b45956e34929181900390910190a15060019392505050565b6000611ffe82611c46565b151561207f5760408051600080516020613347833981519152815260206004820152602c60248201527f4552433732313a206f70657261746f7220717565727920666f72206e6f6e657860448201527f697374656e7420746f6b656e0000000000000000000000000000000000000000606482015290519081900360840190fd5b600061208a8361130c565b905080600160a060020a031684600160a060020a031614806120c5575083600160a060020a03166120ba84610ead565b600160a060020a0316145b8061184c575061184c8185611b48565b610e136120e18261130c565b82612a86565b6120f8603c8263ffffffff612aa216565b604051600160a060020a038216907f44d6d25963f097ad14f29f06854a01f575648a1ef82f30e562ccd3889717e33990600090a250565b5490565b303b1590565b7fffffffff0000000000000000000000000000000000000000000000000000000080821614156121b85760408051600080516020613347833981519152815260206004820152601c60248201527f4552433136353a20696e76616c696420696e7465726661636520696400000000604482015290519081900360640190fd5b7fffffffff00000000000000000000000000000000000000000000000000000000166000908152603360205260409020805460ff19166001179055565b6000828152603d60205260409020612213908263ffffffff612aa216565b604051600160a060020a0382169083907fe1bd660d9f7c60e6fb12dd6479fdde12d21fc96385dc7b9b022c0b2f319e739190600090a35050565b600160a060020a0382163314156122b35760408051600080516020613347833981519152815260206004820152601960248201527f4552433732313a20617070726f766520746f2063616c6c657200000000000000604482015290519081900360640190fd5b336000818152603760209081526040808320600160a060020a03871680855290835292819020805460ff1916861515908117909155815190815290519293927f17307eab39ab6107e8899845ad3d59bd9653f200f220920489ca2b5937696c31929181900390910190a35050565b600061233584600160a060020a0316612b2b565b15156123435750600161184c565b6040517f150b7a020000000000000000000000000000000000000000000000000000000081523360048201818152600160a060020a03888116602485015260448401879052608060648501908152865160848601528651600095928a169463150b7a029490938c938b938b939260a4019060208501908083838e5b838110156123d65781810151838201526020016123be565b50505050905090810190601f1680156124035780820380516001836020036101000a031916815260200191505b5095505050505050602060405180830381600087803b15801561242557600080fd5b505af1158015612439573d6000803e3d6000fd5b505050506040513d602081101561244f57600080fd5b50517fffffffff00000000000000000000000000000000000000000000000000000000167f150b7a020000000000000000000000000000000000000000000000000000000014915050949350505050565b60608115156124e3575060408051808201909152600181527f30000000000000000000000000000000000000000000000000000000000000006020820152610e04565b8160005b81156124fb57600101600a820491506124e7565b6060816040519080825280601f01601f191660200182016040528015612528576020820181803883390190505b50905060001982015b85156125af5781516000198201917f01000000000000000000000000000000000000000000000000000000000000006030600a8a06010291849190811061257457fe5b9060200101907effffffffffffffffffffffffffffffffffffffffffffffffffffffffffffff1916908160001a905350600a86049550612531565b50949350505050565b6060808690506060869050606086905060608690506060869050606081518351855187518951010101016040519080825280601f01601f19166020018201604052801561260c576020820181803883390190505b509050806000805b88518110156126c257888181518110151561262b57fe5b9060200101517f010000000000000000000000000000000000000000000000000000000000000090047f010000000000000000000000000000000000000000000000000000000000000002838380600101945081518110151561268a57fe5b9060200101907effffffffffffffffffffffffffffffffffffffffffffffffffffffffffffff1916908160001a905350600101612614565b5060005b87518110156127745787818151811015156126dd57fe5b9060200101517f010000000000000000000000000000000000000000000000000000000000000090047f010000000000000000000000000000000000000000000000000000000000000002838380600101945081518110151561273c57fe5b9060200101907effffffffffffffffffffffffffffffffffffffffffffffffffffffffffffff1916908160001a9053506001016126c6565b5060005b865181101561282657868181518110151561278f57fe5b9060200101517f010000000000000000000000000000000000000000000000000000000000000090047f01000000000000000000000000000000000000000000000000000000000000000283838060010194508151811015156127ee57fe5b9060200101907effffffffffffffffffffffffffffffffffffffffffffffffffffffffffffff1916908160001a905350600101612778565b5060005b85518110156128d857858181518110151561284157fe5b9060200101517f010000000000000000000000000000000000000000000000000000000000000090047f01000000000000000000000000000000000000000000000000000000000000000283838060010194508151811015156128a057fe5b9060200101907effffffffffffffffffffffffffffffffffffffffffffffffffffffffffffff1916908160001a90535060010161282a565b5060005b845181101561298a5784818151811015156128f357fe5b9060200101517f010000000000000000000000000000000000000000000000000000000000000090047f010000000000000000000000000000000000000000000000000000000000000002838380600101945081518110151561295257fe5b9060200101907effffffffffffffffffffffffffffffffffffffffffffffffffffffffffffff1916908160001a9053506001016128dc565b50909d9c50505050505050505050505050565b6129a78282611ee3565b1515612a285760408051600080516020613347833981519152815260206004820152602160248201527f526f6c65733a206163636f756e7420646f6573206e6f74206861766520726f6c60448201527f6500000000000000000000000000000000000000000000000000000000000000606482015290519081900360840190fd5b600160a060020a0316600090815260209190915260409020805460ff19169055565b612a55838383612b33565b612a5f8382612d0d565b610fe18282612dfd565b612a738282612e3b565b612a7d8282612dfd565b610f6f81612f8b565b612a908282612fcf565b600090815260a7602052604081205550565b612aac8282611ee3565b15612b065760408051600080516020613347833981519152815260206004820152601f60248201527f526f6c65733a206163636f756e7420616c72656164792068617320726f6c6500604482015290519081900360640190fd5b600160a060020a0316600090815260209190915260409020805460ff19166001179055565b6000903b1190565b82600160a060020a0316612b468261130c565b600160a060020a031614612bcf5760408051600080516020613347833981519152815260206004820152602960248201527f4552433732313a207472616e73666572206f6620746f6b656e2074686174206960448201527f73206e6f74206f776e0000000000000000000000000000000000000000000000606482015290519081900360840190fd5b600160a060020a0382161515612c5957604080516000805160206133478339815191528152602060048201526024808201527f4552433732313a207472616e7366657220746f20746865207a65726f2061646460448201527f7265737300000000000000000000000000000000000000000000000000000000606482015290519081900360840190fd5b612c6281612ffb565b600160a060020a0383166000908152603660205260409020612c8390613043565b600160a060020a0382166000908152603660205260409020612ca49061305a565b600081815260346020526040808220805473ffffffffffffffffffffffffffffffffffffffff1916600160a060020a0386811691821790925591518493918716917fddf252ad1be2c89b69c2b068fc378daa952ba7f163c4a11628f55a4df523b3ef91a4505050565b600160a060020a038216600090815260386020526040812054612d3790600163ffffffff61306316565b600083815260396020526040902054909150808214612dd457600160a060020a0384166000908152603860205260408120805484908110612d7457fe5b90600052602060002001549050806038600087600160a060020a0316600160a060020a0316815260200190815260200160002083815481101515612db457fe5b600091825260208083209091019290925591825260399052604090208190555b600160a060020a038416600090815260386020526040902080549061178490600019830161330c565b600160a060020a0390911660009081526038602081815260408084208054868652603984529185208290559282526001810183559183529091200155565b600160a060020a0382161515612ea05760408051600080516020613347833981519152815260206004820181905260248201527f4552433732313a206d696e7420746f20746865207a65726f2061646472657373604482015290519081900360640190fd5b612ea981611c46565b15612f035760408051600080516020613347833981519152815260206004820152601c60248201527f4552433732313a20746f6b656e20616c7265616479206d696e74656400000000604482015290519081900360640190fd5b6000818152603460209081526040808320805473ffffffffffffffffffffffffffffffffffffffff1916600160a060020a038716908117909155835260369091529020612f4f9061305a565b6040518190600160a060020a038416906000907fddf252ad1be2c89b69c2b068fc378daa952ba7f163c4a11628f55a4df523b3ef908290a45050565b603a80546000838152603b60205260408120829055600182018355919091527fa2999d817b6757290b50e8ecf3fa939673403dd35c97de392fdb343b4015ce9e0155565b612fd982826130c8565b612fe38282612d0d565b600081815260396020526040812055610f6f816131f0565b600081815260356020526040902054600160a060020a031615610e13576000908152603560205260409020805473ffffffffffffffffffffffffffffffffffffffff19169055565b805461305690600163ffffffff61306316565b9055565b80546001019055565b6000828211156130c25760408051600080516020613347833981519152815260206004820152601e60248201527f536166654d6174683a207375627472616374696f6e206f766572666c6f770000604482015290519081900360640190fd5b50900390565b81600160a060020a03166130db8261130c565b600160a060020a0316146131645760408051600080516020613347833981519152815260206004820152602560248201527f4552433732313a206275726e206f6620746f6b656e2074686174206973206e6f60448201527f74206f776e000000000000000000000000000000000000000000000000000000606482015290519081900360840190fd5b61316d81612ffb565b600160a060020a038216600090815260366020526040902061318e90613043565b600081815260346020526040808220805473ffffffffffffffffffffffffffffffffffffffff1916905551829190600160a060020a038516907fddf252ad1be2c89b69c2b068fc378daa952ba7f163c4a11628f55a4df523b3ef908390a45050565b603a5460009061320790600163ffffffff61306316565b6000838152603b6020526040812054603a805493945090928490811061322957fe5b9060005260206000200154905080603a8381548110151561324657fe5b6000918252602080832090910192909255828152603b90915260409020829055603a80549061327990600019830161330c565b505050600091825250603b6020526040812055565b828054600181600116156101000203166002900490600052602060002090601f016020900481019282601f106132cf57805160ff19168380011785556132fc565b828001600101855582156132fc579182015b828111156132fc5782518255916020019190600101906132e1565b5061330892915061332c565b5090565b815481835581811115610fe157600083815260209020610fe19181019083015b610eaa91905b80821115613308576000815560010161333256fe08c379a000000000000000000000000000000000000000000000000000000000a165627a7a72305820dee067c8a5325d77511063eb19bd7863b7f5e7f2d2de26dc34b89b47faa641660029",
  "linkReferences": {},
  "deployedLinkReferences": {}
}