{
  "_format": "hh-sol-artifact-1",
  "contractName": "SoulMintFactory",
  "sourceName": "contracts/SoulMintFactory.sol",
  "abi": [
    {
      "inputs": [
        {
          "internalType": "address",
          "name": "",
          "type": "address"
        }
      ],
      "name": "contractByOwner",
      "outputs": [
        {
          "internalType": "contract SoulMint",
          "name": "",
          "type": "address"
        }
      ],
      "stateMutability": "view",
      "type": "function"
    },
    {
      "inputs": [],
      "name": "deployOne",
      "outputs": [
        {
          "internalType": "contract SoulMint",
          "name": "deployedContract",
          "type": "address"
        }
      ],
      "stateMutability": "nonpayable",
      "type": "function"
    },
    {
      "inputs": [],
      "name": "totalSoulMints",
      "outputs": [
        {
          "internalType": "uint256",
          "name": "",
          "type": "uint256"
        }
      ],
      "stateMutability": "view",
      "type": "function"
    }
  ],
  "bytecode": "0x608060405234801561001057600080fd5b50612733806100206000396000f3fe60806040523480156200001157600080fd5b5060043610620000465760003560e01c80630daf9ef4146200004b57806343b5aec6146200006d5780637007b74a1462000086575b600080fd5b620000556200009d565b6040516200006491906200053c565b60405180910390f35b62000077620001e4565b604051620000649190620005ba565b6200005562000097366004620003d1565b620001f7565b3360009081526001602052604081205473ffffffffffffffffffffffffffffffffffffffff161562000106576040517f08c379a0000000000000000000000000000000000000000000000000000000008152600401620000fd906200055d565b60405180910390fd5b60006200011460006200021f565b600062000122600062000228565b90506000620001318262000230565b6040516020016200014391906200040e565b604051602081830303815290604052905033816040516200016490620003c3565b6200017192919062000455565b604051809103906000f0801580156200018e573d6000803e3d6000fd5b5033600090815260016020526040902080547fffffffffffffffffffffffff00000000000000000000000000000000000000001673ffffffffffffffffffffffffffffffffffffffff8316179055949350505050565b6000620001f2600062000228565b905090565b60016020526000908152604090205473ffffffffffffffffffffffffffffffffffffffff1681565b80546001019055565b80545b919050565b60608162000273575060408051808201909152600181527f300000000000000000000000000000000000000000000000000000000000000060208201526200022b565b8160005b8115620002a357806200028a816200067b565b91506200029b9050600a83620005eb565b915062000277565b60008167ffffffffffffffff811115620002cd57634e487b7160e01b600052604160045260246000fd5b6040519080825280601f01601f191660200182016040528015620002f8576020820181803683370190505b509050815b8515620003ba57620003116001826200062e565b9050600062000322600a88620005eb565b6200032f90600a6200060c565b6200033b90886200062e565b62000348906030620005c3565b905060008160f81b9050808484815181106200037457634e487b7160e01b600052603260045260246000fd5b60200101907effffffffffffffffffffffffffffffffffffffffffffffffffffffffffffff1916908160001a905350620003b0600a89620005eb565b97505050620002fd565b50949350505050565b61204e80620006b083390190565b600060208284031215620003e3578081fd5b813573ffffffffffffffffffffffffffffffffffffffff8116811462000407578182fd5b9392505050565b60007f536f756c4d696e743a0000000000000000000000000000000000000000000000825282516200044881600985016020870162000648565b9190910160090192915050565b600073ffffffffffffffffffffffffffffffffffffffff84168252608060208301528251806080840152620004928160a085016020870162000648565b7fffffffffffffffffffffffffffffffffffffffffffffffffffffffffffffffe0601f8201168301905082810360a081016040850152600360a08301527f534d54000000000000000000000000000000000000000000000000000000000060c083015260e08101606085015250600760e08201527f697066733a2f2f0000000000000000000000000000000000000000000000000061010082015261012081019150509392505050565b73ffffffffffffffffffffffffffffffffffffffff91909116815260200190565b60208082526030908201527f416464726573732068617320616c7265616479206d696e746564206120536f7560408201527f6c204d696e7420636f6e74726163742e00000000000000000000000000000000606082015260800190565b90815260200190565b600060ff821660ff84168060ff03821115620005e357620005e362000699565b019392505050565b6000826200060757634e487b7160e01b81526012600452602481fd5b500490565b600081600019048311821515161562000629576200062962000699565b500290565b60008282101562000643576200064362000699565b500390565b60005b83811015620006655781810151838201526020016200064b565b8381111562000675576000848401525b50505050565b600060001982141562000692576200069262000699565b5060010190565b634e487b7160e01b600052601160045260246000fdfe60806040523480156200001157600080fd5b506040516200204e3803806200204e83398101604081905262000034916200025a565b8251839083906200004d90600090602085019062000101565b5080516200006390600190602084019062000101565b505050620000806200007a620000ab60201b60201c565b620000af565b80516200009590600a90602084019062000101565b50620000a184620000af565b505050506200035a565b3390565b600780546001600160a01b038381166001600160a01b0319831681179093556040519116919082907f8be0079c531659141344cd1fd0a4f28419497f9722a3daafe3b4186f6b6457e090600090a35050565b8280546200010f9062000307565b90600052602060002090601f0160209004810192826200013357600085556200017e565b82601f106200014e57805160ff19168380011785556200017e565b828001600101855582156200017e579182015b828111156200017e57825182559160200191906001019062000161565b506200018c92915062000190565b5090565b5b808211156200018c576000815560010162000191565b600082601f830112620001b8578081fd5b81516001600160401b0380821115620001d557620001d562000344565b604051601f8301601f19908116603f0116810190828211818310171562000200576200020062000344565b816040528381526020925086838588010111156200021c578485fd5b8491505b838210156200023f578582018301518183018401529082019062000220565b838211156200025057848385830101525b9695505050505050565b6000806000806080858703121562000270578384fd5b84516001600160a01b038116811462000287578485fd5b60208601519094506001600160401b0380821115620002a4578485fd5b620002b288838901620001a7565b94506040870151915080821115620002c8578384fd5b620002d688838901620001a7565b93506060870151915080821115620002ec578283fd5b50620002fb87828801620001a7565b91505092959194509250565b6002810460018216806200031c57607f821691505b602082108114156200033e57634e487b7160e01b600052602260045260246000fd5b50919050565b634e487b7160e01b600052604160045260246000fd5b611ce4806200036a6000396000f3fe608060405234801561001057600080fd5b50600436106101365760003560e01c8063715018a6116100b2578063b88d4fde11610081578063e985e9c511610066578063e985e9c51461026b578063f2fde38b1461027e578063f8f2166c1461029157610136565b8063b88d4fde14610245578063c87b56dd1461025857610136565b8063715018a61461021a5780638da5cb5b1461022257806395d89b411461022a578063a22cb4651461023257610136565b806323b872dd1161010957806342842e0e116100ee57806342842e0e146101e15780636352211e146101f457806370a082311461020757610136565b806323b872dd146101ae5780632e161752146101c157610136565b806301ffc9a71461013b57806306fdde0314610164578063081812fc14610179578063095ea7b314610199575b600080fd5b61014e6101493660046113f1565b6102a4565b60405161015b9190611532565b60405180910390f35b61016c61034e565b60405161015b919061153d565b61018c61018736600461146f565b6103e0565b60405161015b91906114e2565b6101ac6101a73660046113c8565b61042c565b005b6101ac6101bc3660046112da565b6104c4565b6101d46101cf36600461146f565b6104fc565b60405161015b9190611b3e565b6101ac6101ef3660046112da565b61050e565b61018c61020236600461146f565b610529565b6101d461021536600461128e565b61055e565b6101ac6105a2565b61018c6105ed565b61016c6105fc565b6101ac61024036600461138e565b61060b565b6101ac610253366004611315565b610621565b61016c61026636600461146f565b610660565b61014e6102793660046112a8565b610781565b6101ac61028c36600461128e565b6107af565b6101d461029f366004611429565b610820565b60007fffffffff0000000000000000000000000000000000000000000000000000000082167f80ac58cd00000000000000000000000000000000000000000000000000000000148061033757507fffffffff0000000000000000000000000000000000000000000000000000000082167f5b5e139f00000000000000000000000000000000000000000000000000000000145b806103465750610346826108a4565b90505b919050565b60606000805461035d90611bb6565b80601f016020809104026020016040519081016040528092919081815260200182805461038990611bb6565b80156103d65780601f106103ab576101008083540402835291602001916103d6565b820191906000526020600020905b8154815290600101906020018083116103b957829003601f168201915b5050505050905090565b60006103eb826108ee565b6104105760405162461bcd60e51b815260040161040790611995565b60405180910390fd5b506000908152600460205260409020546001600160a01b031690565b600061043782610529565b9050806001600160a01b0316836001600160a01b0316141561046b5760405162461bcd60e51b815260040161040790611a84565b806001600160a01b031661047d61090b565b6001600160a01b0316148061049957506104998161027961090b565b6104b55760405162461bcd60e51b81526004016104079061178f565b6104bf838361090f565b505050565b6104d56104cf61090b565b8261098a565b6104f15760405162461bcd60e51b815260040161040790611ae1565b6104bf838383610a07565b60096020526000908152604090205481565b6104bf83838360405180602001604052806000815250610621565b6000818152600260205260408120546001600160a01b0316806103465760405162461bcd60e51b815260040161040790611849565b60006001600160a01b0382166105865760405162461bcd60e51b8152600401610407906117ec565b506001600160a01b031660009081526003602052604090205490565b6105aa61090b565b6001600160a01b03166105bb6105ed565b6001600160a01b0316146105e15760405162461bcd60e51b8152600401610407906119f2565b6105eb6000610b47565b565b6007546001600160a01b031690565b60606001805461035d90611bb6565b61061d61061661090b565b8383610ba6565b5050565b61063261062c61090b565b8361098a565b61064e5760405162461bcd60e51b815260040161040790611ae1565b61065a84848484610c67565b50505050565b606061066b826108ee565b6106875760405162461bcd60e51b815260040161040790611938565b600082815260066020526040812080546106a090611bb6565b80601f01602080910402602001604051908101604052809291908181526020018280546106cc90611bb6565b80156107195780601f106106ee57610100808354040283529160200191610719565b820191906000526020600020905b8154815290600101906020018083116106fc57829003601f168201915b50505050509050600061072a610c9a565b905080516000141561073e57509050610349565b8151156107705780826040516020016107589291906114b3565b60405160208183030381529060405292505050610349565b61077984610ca9565b949350505050565b6001600160a01b03918216600090815260056020908152604080832093909416825291909152205460ff1690565b6107b761090b565b6001600160a01b03166107c86105ed565b6001600160a01b0316146107ee5760405162461bcd60e51b8152600401610407906119f2565b6001600160a01b0381166108145760405162461bcd60e51b8152600401610407906115ad565b61081d81610b47565b50565b600061082a61090b565b6001600160a01b031661083b6105ed565b6001600160a01b0316146108615760405162461bcd60e51b8152600401610407906119f2565b61086b6008610d2c565b60006108776008610d35565b90506108833382610d39565b61088d8184610d53565b600081815260096020526040902042905592915050565b7fffffffff0000000000000000000000000000000000000000000000000000000081167f01ffc9a70000000000000000000000000000000000000000000000000000000014919050565b6000908152600260205260409020546001600160a01b0316151590565b3390565b6000818152600460205260409020805473ffffffffffffffffffffffffffffffffffffffff19166001600160a01b038416908117909155819061095182610529565b6001600160a01b03167f8c5be1e5ebec7d5bd14f71427d1e84f3dd0314c0f7b2291e5b200ac8c7c3b92560405160405180910390a45050565b6000610995826108ee565b6109b15760405162461bcd60e51b815260040161040790611732565b60006109bc83610529565b9050806001600160a01b0316846001600160a01b031614806109f75750836001600160a01b03166109ec846103e0565b6001600160a01b0316145b8061077957506107798185610781565b826001600160a01b0316610a1a82610529565b6001600160a01b031614610a405760405162461bcd60e51b81526004016104079061160a565b6001600160a01b038216610a665760405162461bcd60e51b81526004016104079061169e565b610a718383836104bf565b610a7c60008261090f565b6001600160a01b0383166000908152600360205260408120805460019290610aa5908490611b73565b90915550506001600160a01b0382166000908152600360205260408120805460019290610ad3908490611b47565b9091555050600081815260026020526040808220805473ffffffffffffffffffffffffffffffffffffffff19166001600160a01b0386811691821790925591518493918716917fddf252ad1be2c89b69c2b068fc378daa952ba7f163c4a11628f55a4df523b3ef91a46104bf8383836104bf565b600780546001600160a01b0383811673ffffffffffffffffffffffffffffffffffffffff19831681179093556040519116919082907f8be0079c531659141344cd1fd0a4f28419497f9722a3daafe3b4186f6b6457e090600090a35050565b816001600160a01b0316836001600160a01b03161415610bd85760405162461bcd60e51b8152600401610407906116fb565b6001600160a01b038381166000818152600560209081526040808320948716808452949091529081902080547fffffffffffffffffffffffffffffffffffffffffffffffffffffffffffffff0016851515179055517f17307eab39ab6107e8899845ad3d59bd9653f200f220920489ca2b5937696c3190610c5a908590611532565b60405180910390a3505050565b610c72848484610a07565b610c7e84848484610d97565b61065a5760405162461bcd60e51b815260040161040790611550565b6060600a805461035d90611bb6565b6060610cb4826108ee565b610cd05760405162461bcd60e51b815260040161040790611a27565b6000610cda610c9a565b90506000815111610cfa5760405180602001604052806000815250610d25565b80610d0484610ee3565b604051602001610d159291906114b3565b6040516020818303038152906040525b9392505050565b80546001019055565b5490565b61061d828260405180602001604052806000815250611032565b610d5c826108ee565b610d785760405162461bcd60e51b8152600401610407906118a6565b600082815260066020908152604090912082516104bf92840190611168565b6000610dab846001600160a01b0316611065565b15610ed857836001600160a01b031663150b7a02610dc761090b565b8786866040518563ffffffff1660e01b8152600401610de994939291906114f6565b602060405180830381600087803b158015610e0357600080fd5b505af1925050508015610e33575060408051601f3d908101601f19168201909252610e309181019061140d565b60015b610e8d573d808015610e61576040519150601f19603f3d011682016040523d82523d6000602084013e610e66565b606091505b508051610e855760405162461bcd60e51b815260040161040790611550565b805181602001fd5b7fffffffff00000000000000000000000000000000000000000000000000000000167f150b7a0200000000000000000000000000000000000000000000000000000000149050610779565b506001949350505050565b606081610f24575060408051808201909152600181527f30000000000000000000000000000000000000000000000000000000000000006020820152610349565b8160005b8115610f4e5780610f3881611bf1565b9150610f479050600a83611b5f565b9150610f28565b60008167ffffffffffffffff811115610f7757634e487b7160e01b600052604160045260246000fd5b6040519080825280601f01601f191660200182016040528015610fa1576020820181803683370190505b5090505b841561077957610fb6600183611b73565b9150610fc3600a86611c2a565b610fce906030611b47565b60f81b818381518110610ff157634e487b7160e01b600052603260045260246000fd5b60200101907effffffffffffffffffffffffffffffffffffffffffffffffffffffffffffff1916908160001a90535061102b600a86611b5f565b9450610fa5565b61103c8383611074565b6110496000848484610d97565b6104bf5760405162461bcd60e51b815260040161040790611550565b6001600160a01b03163b151590565b6001600160a01b03821661109a5760405162461bcd60e51b815260040161040790611903565b6110a3816108ee565b156110c05760405162461bcd60e51b815260040161040790611667565b6110cc600083836104bf565b6001600160a01b03821660009081526003602052604081208054600192906110f5908490611b47565b9091555050600081815260026020526040808220805473ffffffffffffffffffffffffffffffffffffffff19166001600160a01b03861690811790915590518392907fddf252ad1be2c89b69c2b068fc378daa952ba7f163c4a11628f55a4df523b3ef908290a461061d600083836104bf565b82805461117490611bb6565b90600052602060002090601f01602090048101928261119657600085556111dc565b82601f106111af57805160ff19168380011785556111dc565b828001600101855582156111dc579182015b828111156111dc5782518255916020019190600101906111c1565b506111e89291506111ec565b5090565b5b808211156111e857600081556001016111ed565b600067ffffffffffffffff8084111561121c5761121c611c6a565b604051601f8501601f19908116603f0116810190828211818310171561124457611244611c6a565b8160405280935085815286868601111561125d57600080fd5b858560208301376000602087830101525050509392505050565b80356001600160a01b038116811461034957600080fd5b60006020828403121561129f578081fd5b610d2582611277565b600080604083850312156112ba578081fd5b6112c383611277565b91506112d160208401611277565b90509250929050565b6000806000606084860312156112ee578081fd5b6112f784611277565b925061130560208501611277565b9150604084013590509250925092565b6000806000806080858703121561132a578081fd5b61133385611277565b935061134160208601611277565b925060408501359150606085013567ffffffffffffffff811115611363578182fd5b8501601f81018713611373578182fd5b61138287823560208401611201565b91505092959194509250565b600080604083850312156113a0578182fd5b6113a983611277565b9150602083013580151581146113bd578182fd5b809150509250929050565b600080604083850312156113da578182fd5b6113e383611277565b946020939093013593505050565b600060208284031215611402578081fd5b8135610d2581611c80565b60006020828403121561141e578081fd5b8151610d2581611c80565b60006020828403121561143a578081fd5b813567ffffffffffffffff811115611450578182fd5b8201601f81018413611460578182fd5b61077984823560208401611201565b600060208284031215611480578081fd5b5035919050565b6000815180845261149f816020860160208601611b8a565b601f01601f19169290920160200192915050565b600083516114c5818460208801611b8a565b8351908301906114d9818360208801611b8a565b01949350505050565b6001600160a01b0391909116815260200190565b60006001600160a01b038087168352808616602084015250836040830152608060608301526115286080830184611487565b9695505050505050565b901515815260200190565b600060208252610d256020830184611487565b60208082526032908201527f4552433732313a207472616e7366657220746f206e6f6e20455243373231526560408201527f63656976657220696d706c656d656e7465720000000000000000000000000000606082015260800190565b60208082526026908201527f4f776e61626c653a206e6577206f776e657220697320746865207a65726f206160408201527f6464726573730000000000000000000000000000000000000000000000000000606082015260800190565b60208082526025908201527f4552433732313a207472616e736665722066726f6d20696e636f72726563742060408201527f6f776e6572000000000000000000000000000000000000000000000000000000606082015260800190565b6020808252601c908201527f4552433732313a20746f6b656e20616c7265616479206d696e74656400000000604082015260600190565b60208082526024908201527f4552433732313a207472616e7366657220746f20746865207a65726f2061646460408201527f7265737300000000000000000000000000000000000000000000000000000000606082015260800190565b60208082526019908201527f4552433732313a20617070726f766520746f2063616c6c657200000000000000604082015260600190565b6020808252602c908201527f4552433732313a206f70657261746f7220717565727920666f72206e6f6e657860408201527f697374656e7420746f6b656e0000000000000000000000000000000000000000606082015260800190565b60208082526038908201527f4552433732313a20617070726f76652063616c6c6572206973206e6f74206f7760408201527f6e6572206e6f7220617070726f76656420666f7220616c6c0000000000000000606082015260800190565b6020808252602a908201527f4552433732313a2062616c616e636520717565727920666f7220746865207a6560408201527f726f206164647265737300000000000000000000000000000000000000000000606082015260800190565b60208082526029908201527f4552433732313a206f776e657220717565727920666f72206e6f6e657869737460408201527f656e7420746f6b656e0000000000000000000000000000000000000000000000606082015260800190565b6020808252602e908201527f45524337323155524953746f726167653a2055524920736574206f66206e6f6e60408201527f6578697374656e7420746f6b656e000000000000000000000000000000000000606082015260800190565b6020808252818101527f4552433732313a206d696e7420746f20746865207a65726f2061646472657373604082015260600190565b60208082526031908201527f45524337323155524953746f726167653a2055524920717565727920666f722060408201527f6e6f6e6578697374656e7420746f6b656e000000000000000000000000000000606082015260800190565b6020808252602c908201527f4552433732313a20617070726f76656420717565727920666f72206e6f6e657860408201527f697374656e7420746f6b656e0000000000000000000000000000000000000000606082015260800190565b6020808252818101527f4f776e61626c653a2063616c6c6572206973206e6f7420746865206f776e6572604082015260600190565b6020808252602f908201527f4552433732314d657461646174613a2055524920717565727920666f72206e6f60408201527f6e6578697374656e7420746f6b656e0000000000000000000000000000000000606082015260800190565b60208082526021908201527f4552433732313a20617070726f76616c20746f2063757272656e74206f776e6560408201527f7200000000000000000000000000000000000000000000000000000000000000606082015260800190565b60208082526031908201527f4552433732313a207472616e736665722063616c6c6572206973206e6f74206f60408201527f776e6572206e6f7220617070726f766564000000000000000000000000000000606082015260800190565b90815260200190565b60008219821115611b5a57611b5a611c3e565b500190565b600082611b6e57611b6e611c54565b500490565b600082821015611b8557611b85611c3e565b500390565b60005b83811015611ba5578181015183820152602001611b8d565b8381111561065a5750506000910152565b600281046001821680611bca57607f821691505b60208210811415611beb57634e487b7160e01b600052602260045260246000fd5b50919050565b60007fffffffffffffffffffffffffffffffffffffffffffffffffffffffffffffffff821415611c2357611c23611c3e565b5060010190565b600082611c3957611c39611c54565b500690565b634e487b7160e01b600052601160045260246000fd5b634e487b7160e01b600052601260045260246000fd5b634e487b7160e01b600052604160045260246000fd5b7fffffffff000000000000000000000000000000000000000000000000000000008116811461081d57600080fdfea2646970667358221220666331e40edd7a9b2b8583adee5934bb924effa40f5817ee2afba7eb8d9c74f064736f6c63430008010033a2646970667358221220e7ee6b0b09c77e59b8c5440ddc80c4fc6de94753ea0bfcc9738dc3690a5625d364736f6c63430008010033",
  "linkReferences": {},
  "deployedLinkReferences": {}
}