{
  "_format": "hh-sol-artifact-1",
  "contractName": "SoulMintFactory",
  "sourceName": "contracts/SoulMintFactory.sol",
  "abi": [
    {
      "constant": true,
      "inputs": [
        {
          "name": "",
          "type": "address"
        }
      ],
      "name": "contractByOwner",
      "outputs": [
        {
          "name": "",
          "type": "address"
        }
      ],
      "payable": false,
      "stateMutability": "view",
      "type": "function"
    },
    {
      "constant": false,
      "inputs": [
        {
          "name": "__name",
          "type": "string"
        },
        {
          "name": "__symbol",
          "type": "string"
        },
        {
          "name": "__baseURI",
          "type": "string"
        }
      ],
      "name": "deployOne",
      "outputs": [
        {
          "name": "deployedContract",
          "type": "address"
        }
      ],
      "payable": false,
      "stateMutability": "nonpayable",
      "type": "function"
    }
  ],
  "bytecode": "0x608060405234801561001057600080fd5b50614a74806100206000396000f3fe60806040526004361061004b5763ffffffff7c01000000000000000000000000000000000000000000000000000000006000350416637007b74a8114610050578063786331fc146100b9575b600080fd5b34801561005c57600080fd5b506100906004803603602081101561007357600080fd5b503573ffffffffffffffffffffffffffffffffffffffff1661027a565b6040805173ffffffffffffffffffffffffffffffffffffffff9092168252519081900360200190f35b3480156100c557600080fd5b50610090600480360360608110156100dc57600080fd5b8101906020810181356401000000008111156100f757600080fd5b82018360208201111561010957600080fd5b8035906020019184600183028401116401000000008311171561012b57600080fd5b91908080601f016020809104026020016040519081016040528093929190818152602001838380828437600092019190915250929594936020810193503591505064010000000081111561017e57600080fd5b82018360208201111561019057600080fd5b803590602001918460018302840111640100000000831117156101b257600080fd5b91908080601f016020809104026020016040519081016040528093929190818152602001838380828437600092019190915250929594936020810193503591505064010000000081111561020557600080fd5b82018360208201111561021757600080fd5b8035906020019184600183028401116401000000008311171561023957600080fd5b91908080601f0160208091040260200160405190810160405280939291908181526020018383808284376000920191909152509295506102a2945050505050565b60006020819052908152604090205473ffffffffffffffffffffffffffffffffffffffff1681565b6000808484846102b061045b565b80806020018060200180602001848103845287818151815260200191508051906020019080838360005b838110156102f25781810151838201526020016102da565b50505050905090810190601f16801561031f5780820380516001836020036101000a031916815260200191505b50848103835286518152865160209182019188019080838360005b8381101561035257818101518382015260200161033a565b50505050905090810190601f16801561037f5780820380516001836020036101000a031916815260200191505b50848103825285518152855160209182019187019080838360005b838110156103b257818101518382015260200161039a565b50505050905090810190601f1680156103df5780820380516001836020036101000a031916815260200191505b509650505050505050604051809103906000f080158015610404573d6000803e3d6000fd5b5033600090815260208190526040902080547fffffffffffffffffffffffff00000000000000000000000000000000000000001673ffffffffffffffffffffffffffffffffffffffff831617905595945050505050565b6040516145dd8061046c8339019056fe60806040523480156200001157600080fd5b50604051620045dd380380620045dd833981018060405260608110156200003757600080fd5b8101908080516401000000008111156200005057600080fd5b820160208101848111156200006457600080fd5b81516401000000008111828201871017156200007f57600080fd5b505092919060200180516401000000008111156200009c57600080fd5b82016020810184811115620000b057600080fd5b8151640100000000811182820187101715620000cb57600080fd5b50509291906020018051640100000000811115620000e857600080fd5b82016020810184811115620000fc57600080fd5b81516401000000008111828201871017156200011757600080fd5b505092919050505060006200013a62000417640100000000026401000000009004565b60008054600160a060020a031916600160a060020a0383169081178255604051929350917f8be0079c531659141344cd1fd0a4f28419497f9722a3daafe3b4186f6b6457e0908290a3506040805160018082528183019092523291606091906020808301908038833901905050905081816000815181101515620001ba57fe5b600160a060020a03909216602092830290910190910152620001db6200041b565b604051809103906000f080158015620001f8573d6000803e3d6000fd5b5060018054600160a060020a031916600160a060020a0392831617908190556040517f3ccc9aa50000000000000000000000000000000000000000000000000000000081526080600482019081528851608483015288519290931692633ccc9aa5928992899289928892829160248201916044810191606482019160a4019060208b019080838360005b838110156200029c57818101518382015260200162000282565b50505050905090810190601f168015620002ca5780820380516001836020036101000a031916815260200191505b5085810384528851815288516020918201918a019080838360005b83811015620002ff578181015183820152602001620002e5565b50505050905090810190601f1680156200032d5780820380516001836020036101000a031916815260200191505b50858103835287518152875160209182019189019080838360005b838110156200036257818101518382015260200162000348565b50505050905090810190601f168015620003905780820380516001836020036101000a031916815260200191505b508581038252865181528651602091820191808901910280838360005b83811015620003c7578181015183820152602001620003ad565b5050505090500198505050505050505050600060405180830381600087803b158015620003f357600080fd5b505af115801562000408573d6000803e3d6000fd5b5050505050505050506200042c565b3390565b6040516134c1806200111c83390190565b610ce0806200043c6000396000f3fe6080604052600436106100b95763ffffffff7c01000000000000000000000000000000000000000000000000000000006000350416632e16175281146100be5780632f745c59146100fa57806355f804b3146101405780636a9b494d146101f557806370a0823114610233578063715018a61461027357806372b10296146102885780638da5cb5b1461029d5780638f32d59b146102b2578063bd6056f7146102db578063c87b56dd14610321578063f2fde38b146103c0575b600080fd5b3480156100ca57600080fd5b506100e8600480360360208110156100e157600080fd5b5035610400565b60408051918252519081900360200190f35b34801561010657600080fd5b506100e86004803603604081101561011d57600080fd5b5073ffffffffffffffffffffffffffffffffffffffff8135169060200135610412565b34801561014c57600080fd5b506101f36004803603602081101561016357600080fd5b81019060208101813564010000000081111561017e57600080fd5b82018360208201111561019057600080fd5b803590602001918460018302840111640100000000831117156101b257600080fd5b91908080601f0160208091040260200160405190810160405280939291908181526020018383808284376000920191909152509295506104c3945050505050565b005b34801561020157600080fd5b5061020a6105b0565b6040805173ffffffffffffffffffffffffffffffffffffffff9092168252519081900360200190f35b34801561023f57600080fd5b506100e86004803603602081101561025657600080fd5b503573ffffffffffffffffffffffffffffffffffffffff166105cc565b34801561027f57600080fd5b506101f3610675565b34801561029457600080fd5b5061020a610759565b3480156102a957600080fd5b5061020a610775565b3480156102be57600080fd5b506102c7610791565b604080519115158252519081900360200190f35b3480156102e757600080fd5b506101f3600480360360408110156102fe57600080fd5b508035906020013573ffffffffffffffffffffffffffffffffffffffff166107cf565b34801561032d57600080fd5b5061034b6004803603602081101561034457600080fd5b50356109da565b6040805160208082528351818301528351919283929083019185019080838360005b8381101561038557818101518382015260200161036d565b50505050905090810190601f1680156103b25780820380516001836020036101000a031916815260200191505b509250505060405180910390f35b3480156103cc57600080fd5b506101f3600480360360208110156103e357600080fd5b503573ffffffffffffffffffffffffffffffffffffffff16610af8565b60026020526000908152604090205481565b600154604080517f2f745c5900000000000000000000000000000000000000000000000000000000815273ffffffffffffffffffffffffffffffffffffffff85811660048301526024820185905291516000939290921691632f745c5991604480820192602092909190829003018186803b15801561049057600080fd5b505afa1580156104a4573d6000803e3d6000fd5b505050506040513d60208110156104ba57600080fd5b50519392505050565b6001546040517f55f804b300000000000000000000000000000000000000000000000000000000815260206004820181815284516024840152845173ffffffffffffffffffffffffffffffffffffffff909416936355f804b393869383926044909201919085019080838360005b83811015610549578181015183820152602001610531565b50505050905090810190601f1680156105765780820380516001836020036101000a031916815260200191505b5092505050600060405180830381600087803b15801561059557600080fd5b505af11580156105a9573d6000803e3d6000fd5b5050505050565b60015473ffffffffffffffffffffffffffffffffffffffff1690565b600154604080517f70a0823100000000000000000000000000000000000000000000000000000000815273ffffffffffffffffffffffffffffffffffffffff8481166004830152915160009392909216916370a0823191602480820192602092909190829003018186803b15801561064357600080fd5b505afa158015610657573d6000803e3d6000fd5b505050506040513d602081101561066d57600080fd5b505192915050565b61067d610791565b15156106ea57604080517f08c379a000000000000000000000000000000000000000000000000000000000815260206004820181905260248201527f4f776e61626c653a2063616c6c6572206973206e6f7420746865206f776e6572604482015290519081900360640190fd5b6000805460405173ffffffffffffffffffffffffffffffffffffffff909116907f8be0079c531659141344cd1fd0a4f28419497f9722a3daafe3b4186f6b6457e0908390a3600080547fffffffffffffffffffffffff0000000000000000000000000000000000000000169055565b60015473ffffffffffffffffffffffffffffffffffffffff1681565b60005473ffffffffffffffffffffffffffffffffffffffff1690565b6000805473ffffffffffffffffffffffffffffffffffffffff166107b3610b79565b73ffffffffffffffffffffffffffffffffffffffff1614905090565b600154604080517fa140ae230000000000000000000000000000000000000000000000000000000081526004810185905273ffffffffffffffffffffffffffffffffffffffff84811660248301529151919092169163a140ae239160448083019260209291908290030181600087803b15801561084b57600080fd5b505af115801561085f573d6000803e3d6000fd5b505050506040513d602081101561087557600080fd5b505060018054604080517f70a0823100000000000000000000000000000000000000000000000000000000815273ffffffffffffffffffffffffffffffffffffffff8581166004830152915142946002946000941692632f745c599288929185916370a0823191602480820192602092909190829003018186803b1580156108fc57600080fd5b505afa158015610910573d6000803e3d6000fd5b505050506040513d602081101561092657600080fd5b5051604080517c010000000000000000000000000000000000000000000000000000000063ffffffff871602815273ffffffffffffffffffffffffffffffffffffffff90941660048501529190036024830152516044808301926020929190829003018186803b15801561099957600080fd5b505afa1580156109ad573d6000803e3d6000fd5b505050506040513d60208110156109c357600080fd5b505181526020810191909152604001600020555050565b600154604080517fc87b56dd00000000000000000000000000000000000000000000000000000000815260048101849052905160609273ffffffffffffffffffffffffffffffffffffffff169163c87b56dd916024808301926000929190829003018186803b158015610a4c57600080fd5b505afa158015610a60573d6000803e3d6000fd5b505050506040513d6000823e601f3d9081017fffffffffffffffffffffffffffffffffffffffffffffffffffffffffffffffe01682016040526020811015610aa757600080fd5b810190808051640100000000811115610abf57600080fd5b82016020810184811115610ad257600080fd5b8151640100000000811182820187101715610aec57600080fd5b50909695505050505050565b610b00610791565b1515610b6d57604080517f08c379a000000000000000000000000000000000000000000000000000000000815260206004820181905260248201527f4f776e61626c653a2063616c6c6572206973206e6f7420746865206f776e6572604482015290519081900360640190fd5b610b7681610b7d565b50565b3390565b73ffffffffffffffffffffffffffffffffffffffff81161515610c2757604080517f08c379a000000000000000000000000000000000000000000000000000000000815260206004820152602660248201527f4f776e61626c653a206e6577206f776e657220697320746865207a65726f206160448201527f6464726573730000000000000000000000000000000000000000000000000000606482015290519081900360840190fd5b6000805460405173ffffffffffffffffffffffffffffffffffffffff808516939216917f8be0079c531659141344cd1fd0a4f28419497f9722a3daafe3b4186f6b6457e091a3600080547fffffffffffffffffffffffff00000000000000000000000000000000000000001673ffffffffffffffffffffffffffffffffffffffff9290921691909117905556fea165627a7a723058200f8e7d9de360a9b815586446bb5ac72beb0b3bf8cb93cdd233ebf7e1dc51fc4000296080604052620000387f01ffc9a700000000000000000000000000000000000000000000000000000000640100000000620000a6810204565b6200006c7f80ac58cd00000000000000000000000000000000000000000000000000000000640100000000620000a6810204565b620000a07f780e9d6300000000000000000000000000000000000000000000000000000000640100000000620000a6810204565b62000175565b7fffffffff0000000000000000000000000000000000000000000000000000000080821614156200013857604080517f08c379a000000000000000000000000000000000000000000000000000000000815260206004820152601c60248201527f4552433136353a20696e76616c696420696e7465726661636520696400000000604482015290519081900360640190fd5b7fffffffff00000000000000000000000000000000000000000000000000000000166000908152603360205260409020805460ff19166001179055565b61333c80620001856000396000f3fe6080604052600436106101d75763ffffffff7c010000000000000000000000000000000000000000000000000000000060003504166301ffc9a781146101dc57806302c37ddc1461023c57806306fdde0314610268578063081812fc146102f2578063095ea7b314610338578063127a529814610371578063166c4b05146103ad57806318160ddd146103e65780631a27e85f146103fb57806323b872dd1461042557806324d7806c14610468578063278d9c411461049b57806328db38b4146105525780632f745c591461058b5780633ccc9aa5146105c45780633f4ba83a1461080957806342842e0e1461081e57806342966c68146108615780634f6ccce71461088b57806355f804b3146108b55780635c975abb146109685780636352211e1461097d57806367e971ce146109a757806370480275146109f957806370a0823114610a2c5780638129fc1c14610a5f5780638456cb5914610a745780638bad0c0a14610a8957806395d89b4114610a9e5780639cd3cad614610ab3578063a140ae2314610aec578063a22cb46514610b25578063b88d4fde14610b60578063c1292cc314610c33578063c4d66de814610c48578063c87b56dd14610c7b578063e985e9c514610ca5578063f980f3dc14610ce0575b600080fd5b3480156101e857600080fd5b50610228600480360360208110156101ff57600080fd5b50357fffffffff0000000000000000000000000000000000000000000000000000000016610d9b565b604080519115158252519081900360200190f35b34801561024857600080fd5b506102666004803603602081101561025f57600080fd5b5035610dd6565b005b34801561027457600080fd5b5061027d610de3565b6040805160208082528351818301528351919283929083019185019080838360005b838110156102b757818101518382015260200161029f565b50505050905090810190601f1680156102e45780820380516001836020036101000a031916815260200191505b509250505060405180910390f35b3480156102fe57600080fd5b5061031c6004803603602081101561031557600080fd5b5035610e7a565b60408051600160a060020a039092168252519081900360200190f35b34801561034457600080fd5b506102666004803603604081101561035b57600080fd5b50600160a060020a038135169060200135610f22565b34801561037d57600080fd5b5061039b6004803603602081101561039457600080fd5b5035610f40565b60408051918252519081900360200190f35b3480156103b957600080fd5b50610266600480360360408110156103d057600080fd5b5080359060200135600160a060020a0316610f52565b3480156103f257600080fd5b5061039b610f70565b34801561040757600080fd5b506102666004803603602081101561041e57600080fd5b5035610f76565b34801561043157600080fd5b506102666004803603606081101561044857600080fd5b50600160a060020a03813581169160208101359091169060400135610fad565b34801561047457600080fd5b506102286004803603602081101561048b57600080fd5b5035600160a060020a0316610fcd565b3480156104a757600080fd5b50610228600480360360408110156104be57600080fd5b813591908101906040810160208201356401000000008111156104e057600080fd5b8201836020820111156104f257600080fd5b8035906020019184602083028401116401000000008311171561051457600080fd5b919080806020026020016040519081016040528093929190818152602001838360200280828437600092019190915250929550610fe6945050505050565b34801561055e57600080fd5b506102286004803603604081101561057557600080fd5b5080359060200135600160a060020a0316611062565b34801561059757600080fd5b5061039b600480360360408110156105ae57600080fd5b50600160a060020a038135169060200135611098565b3480156105d057600080fd5b50610266600480360360808110156105e757600080fd5b81019060208101813564010000000081111561060257600080fd5b82018360208201111561061457600080fd5b8035906020019184600183028401116401000000008311171561063657600080fd5b91908080601f016020809104026020016040519081016040528093929190818152602001838380828437600092019190915250929594936020810193503591505064010000000081111561068957600080fd5b82018360208201111561069b57600080fd5b803590602001918460018302840111640100000000831117156106bd57600080fd5b91908080601f016020809104026020016040519081016040528093929190818152602001838380828437600092019190915250929594936020810193503591505064010000000081111561071057600080fd5b82018360208201111561072257600080fd5b8035906020019184600183028401116401000000008311171561074457600080fd5b91908080601f016020809104026020016040519081016040528093929190818152602001838380828437600092019190915250929594936020810193503591505064010000000081111561079757600080fd5b8201836020820111156107a957600080fd5b803590602001918460208302840111640100000000831117156107cb57600080fd5b91908080602002602001604051908101604052809392919081815260200183836020028082843760009201919091525092955061115b945050505050565b34801561081557600080fd5b506102666112f2565b34801561082a57600080fd5b506102666004803603606081101561084157600080fd5b50600160a060020a03813581169160208101359091169060400135611356565b34801561086d57600080fd5b506102666004803603602081101561088457600080fd5b5035611372565b34801561089757600080fd5b5061039b600480360360208110156108ae57600080fd5b503561139f565b3480156108c157600080fd5b50610266600480360360208110156108d857600080fd5b8101906020810181356401000000008111156108f357600080fd5b82018360208201111561090557600080fd5b8035906020019184600183028401116401000000008311171561092757600080fd5b91908080601f01602080910402602001604051908101604052809392919081815260200183838082843760009201919091525092955061144a945050505050565b34801561097457600080fd5b50610228611481565b34801561098957600080fd5b5061031c600480360360208110156109a057600080fd5b503561148a565b3480156109b357600080fd5b506109e0600480360360408110156109ca57600080fd5b50600160a060020a038135169060200135611524565b6040805192835260208301919091528051918290030190f35b348015610a0557600080fd5b5061026660048036036020811015610a1c57600080fd5b5035600160a060020a0316611545565b348015610a3857600080fd5b5061039b60048036036020811015610a4f57600080fd5b5035600160a060020a0316611562565b348015610a6b57600080fd5b50610266611610565b348015610a8057600080fd5b50610266611701565b348015610a9557600080fd5b50610266611767565b348015610aaa57600080fd5b5061027d611772565b348015610abf57600080fd5b5061026660048036036040811015610ad657600080fd5b5080359060200135600160a060020a03166117d3565b348015610af857600080fd5b5061022860048036036040811015610b0f57600080fd5b5080359060200135600160a060020a03166117f3565b348015610b3157600080fd5b5061026660048036036040811015610b4857600080fd5b50600160a060020a038135169060200135151561183b565b348015610b6c57600080fd5b5061026660048036036080811015610b8357600080fd5b600160a060020a03823581169260208101359091169160408201359190810190608081016060820135640100000000811115610bbe57600080fd5b820183602082011115610bd057600080fd5b80359060200191846001830284011164010000000083111715610bf257600080fd5b91908080601f016020809104026020016040519081016040528093929190818152602001838380828437600092019190915250929550611855945050505050565b348015610c3f57600080fd5b5061039b6118f3565b348015610c5457600080fd5b5061026660048036036020811015610c6b57600080fd5b5035600160a060020a03166118f9565b348015610c8757600080fd5b5061027d60048036036020811015610c9e57600080fd5b50356119f9565b348015610cb157600080fd5b5061022860048036036040811015610cc857600080fd5b50600160a060020a0381358116916020013516611af8565b348015610cec57600080fd5b5061022860048036036040811015610d0357600080fd5b810190602081018135640100000000811115610d1e57600080fd5b820183602082011115610d3057600080fd5b80359060200191846020830284011164010000000083111715610d5257600080fd5b91908080602002602001604051908101604052809392919081815260200183836020028082843760009201919091525092955050509035600160a060020a03169150611b269050565b7fffffffff00000000000000000000000000000000000000000000000000000000811660009081526033602052604090205460ff165b919050565b610de08133611b9e565b50565b60a38054604080516020601f6002600019610100600188161502019095169490940493840181900481028201810190925282815260609390929091830182828015610e6f5780601f10610e4457610100808354040283529160200191610e6f565b820191906000526020600020905b815481529060010190602001808311610e5257829003601f168201915b505050505090505b90565b6000610e8582611bf6565b1515610f0657604080516000805160206132f1833981519152815260206004820152602c60248201527f4552433732313a20617070726f76656420717565727920666f72206e6f6e657860448201527f697374656e7420746f6b656e0000000000000000000000000000000000000000606482015290519081900360840190fd5b50600090815260356020526040902054600160a060020a031690565b60705460ff1615610f3257600080fd5b610f3c8282611c13565b5050565b600090815260a7602052604090205490565b610f5b33610fcd565b1515610f6657600080fd5b610f3c8282611b9e565b603a5490565b610f7f33610fcd565b1515610f8a57600080fd5b60705460ff1615610f9a57600080fd5b60a6548111610fa857600080fd5b60a655565b60705460ff1615610fbd57600080fd5b610fc8838383611db5565b505050565b6000610fe0603c8363ffffffff611e4b16565b92915050565b60705460009060ff1615610ff957600080fd5b826110048133611062565b151561100f57600080fd5b60005b835181101561104d57611044858260a65460010101868481518110151561103557fe5b90602001906020020151611ef8565b50600101611012565b5050905160a680549091019055506001919050565b600061106d82610fcd565b8061109157506000838152603d60205260409020611091908363ffffffff611e4b16565b9392505050565b60006110a383611562565b821061112457604080516000805160206132f1833981519152815260206004820152602b60248201527f455243373231456e756d657261626c653a206f776e657220696e646578206f7560448201527f74206f6620626f756e6473000000000000000000000000000000000000000000606482015290519081900360840190fd5b600160a060020a038316600090815260386020526040902080548390811061114857fe5b9060005260206000200154905092915050565b600054610100900460ff16806111745750611174611f55565b80611182575060005460ff16155b151561120357604080516000805160206132f1833981519152815260206004820152602e60248201527f436f6e747261637420696e7374616e63652068617320616c726561647920626560448201527f656e20696e697469616c697a6564000000000000000000000000000000000000606482015290519081900360840190fd5b600054610100900460ff1615801561122e576000805460ff1961ff0019909116610100171660011790555b611237336118f9565b61123f611610565b60005b82518110156112735761126b838281518110151561125c57fe5b90602001906020020151611f5b565b600101611242565b5084516112879060a3906020880190613238565b50835161129b9060a4906020870190613238565b5082516112af9060a5906020860190613238565b506112d97f5b5e139f00000000000000000000000000000000000000000000000000000000611fa3565b80156112eb576000805461ff00191690555b5050505050565b6112fb33610fcd565b151561130657600080fd5b60705460ff16151561131757600080fd5b6070805460ff191690556040805133815290517f5db9ee0a495bf2e6ff9c91a7834c1ba4fdd244a5e8aa4e537bd38aeae4b073aa9181900360200190a1565b610fc88383836020604051908101604052806000815250611855565b61137c338261205f565b8061138b575061138b33610fcd565b151561139657600080fd5b610de081612141565b60006113a9610f70565b821061142a57604080516000805160206132f1833981519152815260206004820152602c60248201527f455243373231456e756d657261626c653a20676c6f62616c20696e646578206f60448201527f7574206f6620626f756e64730000000000000000000000000000000000000000606482015290519081900360840190fd5b603a80548390811061143857fe5b90600052602060002001549050919050565b61145333610fcd565b151561145e57600080fd5b60705460ff161561146e57600080fd5b8051610f3c9060a5906020840190613238565b60705460ff1690565b600081815260346020526040812054600160a060020a0316801515610fe057604080516000805160206132f1833981519152815260206004820152602960248201527f4552433732313a206f776e657220717565727920666f72206e6f6e657869737460448201527f656e7420746f6b656e0000000000000000000000000000000000000000000000606482015290519081900360840190fd5b6000806115318484611098565b915061153c82610f40565b90509250929050565b61154e33610fcd565b151561155957600080fd5b610de081611f5b565b6000600160a060020a03821615156115ef57604080516000805160206132f1833981519152815260206004820152602a60248201527f4552433732313a2062616c616e636520717565727920666f7220746865207a6560448201527f726f206164647265737300000000000000000000000000000000000000000000606482015290519081900360840190fd5b600160a060020a0382166000908152603660205260409020610fe090612153565b600054610100900460ff16806116295750611629611f55565b80611637575060005460ff16155b15156116b857604080516000805160206132f1833981519152815260206004820152602e60248201527f436f6e747261637420696e7374616e63652068617320616c726561647920626560448201527f656e20696e697469616c697a6564000000000000000000000000000000000000606482015290519081900360840190fd5b600054610100900460ff161580156116e3576000805460ff1961ff0019909116610100171660011790555b6070805460ff191690558015610de0576000805461ff001916905550565b61170a33610fcd565b151561171557600080fd5b60705460ff161561172557600080fd5b6070805460ff191660011790556040805133815290517f62e78cea01bee320cd4e420270b5ea74000d11b0c9f74754ebdbfc544b05a2589181900360200190a1565b61177033612157565b565b60a48054604080516020601f6002600019610100600188161502019095169490940493840181900481028201810190925282815260609390929091830182828015610e6f5780601f10610e4457610100808354040283529160200191610e6f565b816117de8133611062565b15156117e957600080fd5b610fc8838361219f565b60705460009060ff161561180657600080fd5b826118118133611062565b151561181c57600080fd5b60a680546001019081905561183390859085611ef8565b949350505050565b60705460ff161561184b57600080fd5b610f3c82826121f7565b611860848484610fad565b61186c848484846122cb565b15156118ed57604080516000805160206132f1833981519152815260206004820152603260248201527f4552433732313a207472616e7366657220746f206e6f6e20455243373231526560448201527f63656976657220696d706c656d656e7465720000000000000000000000000000606482015290519081900360840190fd5b50505050565b60a65481565b600054610100900460ff16806119125750611912611f55565b80611920575060005460ff16155b15156119a157604080516000805160206132f1833981519152815260206004820152602e60248201527f436f6e747261637420696e7374616e63652068617320616c726561647920626560448201527f656e20696e697469616c697a6564000000000000000000000000000000000000606482015290519081900360840190fd5b600054610100900460ff161580156119cc576000805460ff1961ff0019909116610100171660011790555b6119d582610fcd565b15156119e4576119e482611f5b565b8015610f3c576000805461ff00191690555050565b600081815260a760209081526040918290205460a580548451601f60026000196101006001861615020190931692909204918201859004850281018501909552808552606094929361109193929190830182828015611a995780601f10611a6e57610100808354040283529160200191611a99565b820191906000526020600020905b815481529060010190602001808311611a7c57829003601f168201915b5050505050611aa78361244a565b60408051808201909152600181527f2f000000000000000000000000000000000000000000000000000000000000006020820152611ae48761244a565b604080516020810190915260008152612562565b600160a060020a03918216600090815260376020908152604080832093909416825291909152205460ff1690565b60705460009060ff1615611b3957600080fd5b611b4233610fcd565b1515611b4d57600080fd5b60005b8351811015611b8b57611b828482815181101515611b6a57fe5b906020019060200201518260a6546001010185611ef8565b50600101611b50565b5050905160a68054909101905550600190565b6000828152603d60205260409020611bbc908263ffffffff61294716565b604051600160a060020a0382169083907fb6882c4d609d560f6d57e78e73dd96027f0d9852739b0b922537a6dd3c8e944c90600090a35050565b600090815260346020526040902054600160a060020a0316151590565b6000611c1e8261148a565b9050600160a060020a038381169082161415611caf57604080516000805160206132f1833981519152815260206004820152602160248201527f4552433732313a20617070726f76616c20746f2063757272656e74206f776e6560448201527f7200000000000000000000000000000000000000000000000000000000000000606482015290519081900360840190fd5b33600160a060020a0382161480611ccb5750611ccb8133611af8565b1515611d4c57604080516000805160206132f1833981519152815260206004820152603860248201527f4552433732313a20617070726f76652063616c6c6572206973206e6f74206f7760448201527f6e6572206e6f7220617070726f76656420666f7220616c6c0000000000000000606482015290519081900360840190fd5b600082815260356020526040808220805473ffffffffffffffffffffffffffffffffffffffff1916600160a060020a0387811691821790925591518593918516917f8c5be1e5ebec7d5bd14f71427d1e84f3dd0314c0f7b2291e5b200ac8c7c3b92591a4505050565b611dbf338261205f565b1515611e4057604080516000805160206132f1833981519152815260206004820152603160248201527f4552433732313a207472616e736665722063616c6c6572206973206e6f74206f60448201527f776e6572206e6f7220617070726f766564000000000000000000000000000000606482015290519081900360840190fd5b610fc88383836129f4565b6000600160a060020a0382161515611ed857604080516000805160206132f1833981519152815260206004820152602260248201527f526f6c65733a206163636f756e7420697320746865207a65726f20616464726560448201527f7373000000000000000000000000000000000000000000000000000000000000606482015290519081900360840190fd5b50600160a060020a03166000908152602091909152604090205460ff1690565b6000611f048284612a13565b600083815260a760209081526040918290208690558151858152915186927f4b3711cd7ece062b0828c1b6e08d814a72d4c003383a016c833cbb1b45956e3492908290030190a25060019392505050565b303b1590565b611f6c603c8263ffffffff612a3016565b604051600160a060020a038216907f44d6d25963f097ad14f29f06854a01f575648a1ef82f30e562ccd3889717e33990600090a250565b7fffffffff00000000000000000000000000000000000000000000000000000000808216141561202257604080516000805160206132f1833981519152815260206004820152601c60248201527f4552433136353a20696e76616c696420696e7465726661636520696400000000604482015290519081900360640190fd5b7fffffffff00000000000000000000000000000000000000000000000000000000166000908152603360205260409020805460ff19166001179055565b600061206a82611bf6565b15156120eb57604080516000805160206132f1833981519152815260206004820152602c60248201527f4552433732313a206f70657261746f7220717565727920666f72206e6f6e657860448201527f697374656e7420746f6b656e0000000000000000000000000000000000000000606482015290519081900360840190fd5b60006120f68361148a565b905080600160a060020a031684600160a060020a03161480612131575083600160a060020a031661212684610e7a565b600160a060020a0316145b8061183357506118338185611af8565b610de061214d8261148a565b82612ab9565b5490565b612168603c8263ffffffff61294716565b604051600160a060020a038216907fa3b62bc36326052d97ea62d63c3d60308ed4c3ea8ac079dd8499f1e9c4f80c0f90600090a250565b6000828152603d602052604090206121bd908263ffffffff612a3016565b604051600160a060020a0382169083907fe1bd660d9f7c60e6fb12dd6479fdde12d21fc96385dc7b9b022c0b2f319e739190600090a35050565b600160a060020a03821633141561225d57604080516000805160206132f1833981519152815260206004820152601960248201527f4552433732313a20617070726f766520746f2063616c6c657200000000000000604482015290519081900360640190fd5b336000818152603760209081526040808320600160a060020a03871680855290835292819020805460ff1916861515908117909155815190815290519293927f17307eab39ab6107e8899845ad3d59bd9653f200f220920489ca2b5937696c31929181900390910190a35050565b60006122df84600160a060020a0316612ad5565b15156122ed57506001611833565b6040517f150b7a020000000000000000000000000000000000000000000000000000000081523360048201818152600160a060020a03888116602485015260448401879052608060648501908152865160848601528651600095928a169463150b7a029490938c938b938b939260a4019060208501908083838e5b83811015612380578181015183820152602001612368565b50505050905090810190601f1680156123ad5780820380516001836020036101000a031916815260200191505b5095505050505050602060405180830381600087803b1580156123cf57600080fd5b505af11580156123e3573d6000803e3d6000fd5b505050506040513d60208110156123f957600080fd5b50517fffffffff00000000000000000000000000000000000000000000000000000000167f150b7a020000000000000000000000000000000000000000000000000000000014915050949350505050565b606081151561248d575060408051808201909152600181527f30000000000000000000000000000000000000000000000000000000000000006020820152610dd1565b8160005b81156124a557600101600a82049150612491565b6060816040519080825280601f01601f1916602001820160405280156124d2576020820181803883390190505b50905060001982015b85156125595781516000198201917f01000000000000000000000000000000000000000000000000000000000000006030600a8a06010291849190811061251e57fe5b9060200101907effffffffffffffffffffffffffffffffffffffffffffffffffffffffffffff1916908160001a905350600a860495506124db565b50949350505050565b6060808690506060869050606086905060608690506060869050606081518351855187518951010101016040519080825280601f01601f1916602001820160405280156125b6576020820181803883390190505b509050806000805b885181101561266c5788818151811015156125d557fe5b9060200101517f010000000000000000000000000000000000000000000000000000000000000090047f010000000000000000000000000000000000000000000000000000000000000002838380600101945081518110151561263457fe5b9060200101907effffffffffffffffffffffffffffffffffffffffffffffffffffffffffffff1916908160001a9053506001016125be565b5060005b875181101561271e57878181518110151561268757fe5b9060200101517f010000000000000000000000000000000000000000000000000000000000000090047f01000000000000000000000000000000000000000000000000000000000000000283838060010194508151811015156126e657fe5b9060200101907effffffffffffffffffffffffffffffffffffffffffffffffffffffffffffff1916908160001a905350600101612670565b5060005b86518110156127d057868181518110151561273957fe5b9060200101517f010000000000000000000000000000000000000000000000000000000000000090047f010000000000000000000000000000000000000000000000000000000000000002838380600101945081518110151561279857fe5b9060200101907effffffffffffffffffffffffffffffffffffffffffffffffffffffffffffff1916908160001a905350600101612722565b5060005b85518110156128825785818151811015156127eb57fe5b9060200101517f010000000000000000000000000000000000000000000000000000000000000090047f010000000000000000000000000000000000000000000000000000000000000002838380600101945081518110151561284a57fe5b9060200101907effffffffffffffffffffffffffffffffffffffffffffffffffffffffffffff1916908160001a9053506001016127d4565b5060005b845181101561293457848181518110151561289d57fe5b9060200101517f010000000000000000000000000000000000000000000000000000000000000090047f01000000000000000000000000000000000000000000000000000000000000000283838060010194508151811015156128fc57fe5b9060200101907effffffffffffffffffffffffffffffffffffffffffffffffffffffffffffff1916908160001a905350600101612886565b50909d9c50505050505050505050505050565b6129518282611e4b565b15156129d257604080516000805160206132f1833981519152815260206004820152602160248201527f526f6c65733a206163636f756e7420646f6573206e6f74206861766520726f6c60448201527f6500000000000000000000000000000000000000000000000000000000000000606482015290519081900360840190fd5b600160a060020a0316600090815260209190915260409020805460ff19169055565b6129ff838383612add565b612a098382612cb7565b610fc88282612da7565b612a1d8282612de5565b612a278282612da7565b610f3c81612f35565b612a3a8282611e4b565b15612a9457604080516000805160206132f1833981519152815260206004820152601f60248201527f526f6c65733a206163636f756e7420616c72656164792068617320726f6c6500604482015290519081900360640190fd5b600160a060020a0316600090815260209190915260409020805460ff19166001179055565b612ac38282612f79565b600090815260a7602052604081205550565b6000903b1190565b82600160a060020a0316612af08261148a565b600160a060020a031614612b7957604080516000805160206132f1833981519152815260206004820152602960248201527f4552433732313a207472616e73666572206f6620746f6b656e2074686174206960448201527f73206e6f74206f776e0000000000000000000000000000000000000000000000606482015290519081900360840190fd5b600160a060020a0382161515612c0357604080516000805160206132f18339815191528152602060048201526024808201527f4552433732313a207472616e7366657220746f20746865207a65726f2061646460448201527f7265737300000000000000000000000000000000000000000000000000000000606482015290519081900360840190fd5b612c0c81612fa5565b600160a060020a0383166000908152603660205260409020612c2d90612fed565b600160a060020a0382166000908152603660205260409020612c4e90613004565b600081815260346020526040808220805473ffffffffffffffffffffffffffffffffffffffff1916600160a060020a0386811691821790925591518493918716917fddf252ad1be2c89b69c2b068fc378daa952ba7f163c4a11628f55a4df523b3ef91a4505050565b600160a060020a038216600090815260386020526040812054612ce190600163ffffffff61300d16565b600083815260396020526040902054909150808214612d7e57600160a060020a0384166000908152603860205260408120805484908110612d1e57fe5b90600052602060002001549050806038600087600160a060020a0316600160a060020a0316815260200190815260200160002083815481101515612d5e57fe5b600091825260208083209091019290925591825260399052604090208190555b600160a060020a03841660009081526038602052604090208054906112eb9060001983016132b6565b600160a060020a0390911660009081526038602081815260408084208054868652603984529185208290559282526001810183559183529091200155565b600160a060020a0382161515612e4a57604080516000805160206132f1833981519152815260206004820181905260248201527f4552433732313a206d696e7420746f20746865207a65726f2061646472657373604482015290519081900360640190fd5b612e5381611bf6565b15612ead57604080516000805160206132f1833981519152815260206004820152601c60248201527f4552433732313a20746f6b656e20616c7265616479206d696e74656400000000604482015290519081900360640190fd5b6000818152603460209081526040808320805473ffffffffffffffffffffffffffffffffffffffff1916600160a060020a038716908117909155835260369091529020612ef990613004565b6040518190600160a060020a038416906000907fddf252ad1be2c89b69c2b068fc378daa952ba7f163c4a11628f55a4df523b3ef908290a45050565b603a80546000838152603b60205260408120829055600182018355919091527fa2999d817b6757290b50e8ecf3fa939673403dd35c97de392fdb343b4015ce9e0155565b612f838282613072565b612f8d8282612cb7565b600081815260396020526040812055610f3c8161319a565b600081815260356020526040902054600160a060020a031615610de0576000908152603560205260409020805473ffffffffffffffffffffffffffffffffffffffff19169055565b805461300090600163ffffffff61300d16565b9055565b80546001019055565b60008282111561306c57604080516000805160206132f1833981519152815260206004820152601e60248201527f536166654d6174683a207375627472616374696f6e206f766572666c6f770000604482015290519081900360640190fd5b50900390565b81600160a060020a03166130858261148a565b600160a060020a03161461310e57604080516000805160206132f1833981519152815260206004820152602560248201527f4552433732313a206275726e206f6620746f6b656e2074686174206973206e6f60448201527f74206f776e000000000000000000000000000000000000000000000000000000606482015290519081900360840190fd5b61311781612fa5565b600160a060020a038216600090815260366020526040902061313890612fed565b600081815260346020526040808220805473ffffffffffffffffffffffffffffffffffffffff1916905551829190600160a060020a038516907fddf252ad1be2c89b69c2b068fc378daa952ba7f163c4a11628f55a4df523b3ef908390a45050565b603a546000906131b190600163ffffffff61300d16565b6000838152603b6020526040812054603a80549394509092849081106131d357fe5b9060005260206000200154905080603a838154811015156131f057fe5b6000918252602080832090910192909255828152603b90915260409020829055603a8054906132239060001983016132b6565b505050600091825250603b6020526040812055565b828054600181600116156101000203166002900490600052602060002090601f016020900481019282601f1061327957805160ff19168380011785556132a6565b828001600101855582156132a6579182015b828111156132a657825182559160200191906001019061328b565b506132b29291506132d6565b5090565b815481835581811115610fc857600083815260209020610fc89181019083015b610e7791905b808211156132b257600081556001016132dc56fe08c379a000000000000000000000000000000000000000000000000000000000a165627a7a72305820ea1d910ec7bca7c6c2778d122496b6ca848191d835c055559926301e7477c8520029a165627a7a723058203bb4dee8d0ee9f345c417d92ca64a419cfa20505e2ce8e123031897dad30f1990029",
  "linkReferences": {},
  "deployedLinkReferences": {}
}