{
  "_format": "hh-sol-artifact-1",
  "contractName": "PoapRoles",
  "sourceName": "contracts/PoapRoles.sol",
  "abi": [
    {
      "constant": false,
      "inputs": [
        {
          "name": "eventId",
          "type": "uint256"
        }
      ],
      "name": "renounceEventMinter",
      "outputs": [],
      "payable": false,
      "stateMutability": "nonpayable",
      "type": "function"
    },
    {
      "constant": false,
      "inputs": [
        {
          "name": "eventId",
          "type": "uint256"
        },
        {
          "name": "account",
          "type": "address"
        }
      ],
      "name": "removeEventMinter",
      "outputs": [],
      "payable": false,
      "stateMutability": "nonpayable",
      "type": "function"
    },
    {
      "constant": true,
      "inputs": [
        {
          "name": "account",
          "type": "address"
        }
      ],
      "name": "isAdmin",
      "outputs": [
        {
          "name": "",
          "type": "bool"
        }
      ],
      "payable": false,
      "stateMutability": "view",
      "type": "function"
    },
    {
      "constant": true,
      "inputs": [
        {
          "name": "eventId",
          "type": "uint256"
        },
        {
          "name": "account",
          "type": "address"
        }
      ],
      "name": "isEventMinter",
      "outputs": [
        {
          "name": "",
          "type": "bool"
        }
      ],
      "payable": false,
      "stateMutability": "view",
      "type": "function"
    },
    {
      "constant": false,
      "inputs": [
        {
          "name": "account",
          "type": "address"
        }
      ],
      "name": "addAdmin",
      "outputs": [],
      "payable": false,
      "stateMutability": "nonpayable",
      "type": "function"
    },
    {
      "constant": false,
      "inputs": [],
      "name": "renounceAdmin",
      "outputs": [],
      "payable": false,
      "stateMutability": "nonpayable",
      "type": "function"
    },
    {
      "constant": false,
      "inputs": [
        {
          "name": "eventId",
          "type": "uint256"
        },
        {
          "name": "account",
          "type": "address"
        }
      ],
      "name": "addEventMinter",
      "outputs": [],
      "payable": false,
      "stateMutability": "nonpayable",
      "type": "function"
    },
    {
      "constant": false,
      "inputs": [
        {
          "name": "sender",
          "type": "address"
        }
      ],
      "name": "initialize",
      "outputs": [],
      "payable": false,
      "stateMutability": "nonpayable",
      "type": "function"
    },
    {
      "anonymous": false,
      "inputs": [
        {
          "indexed": true,
          "name": "account",
          "type": "address"
        }
      ],
      "name": "AdminAdded",
      "type": "event"
    },
    {
      "anonymous": false,
      "inputs": [
        {
          "indexed": true,
          "name": "account",
          "type": "address"
        }
      ],
      "name": "AdminRemoved",
      "type": "event"
    },
    {
      "anonymous": false,
      "inputs": [
        {
          "indexed": true,
          "name": "eventId",
          "type": "uint256"
        },
        {
          "indexed": true,
          "name": "account",
          "type": "address"
        }
      ],
      "name": "EventMinterAdded",
      "type": "event"
    },
    {
      "anonymous": false,
      "inputs": [
        {
          "indexed": true,
          "name": "eventId",
          "type": "uint256"
        },
        {
          "indexed": true,
          "name": "account",
          "type": "address"
        }
      ],
      "name": "EventMinterRemoved",
      "type": "event"
    }
  ],
  "bytecode": "0x608060405234801561001057600080fd5b50610849806100206000396000f3fe60806040526004361061008d5763ffffffff7c010000000000000000000000000000000000000000000000000000000060003504166302c37ddc8114610092578063166c4b05146100be57806324d7806c1461010457806328db38b414610158578063704802751461019e5780638bad0c0a146101de5780639cd3cad6146101f3578063c4d66de814610239575b600080fd5b34801561009e57600080fd5b506100bc600480360360208110156100b557600080fd5b5035610279565b005b3480156100ca57600080fd5b506100bc600480360360408110156100e157600080fd5b508035906020013573ffffffffffffffffffffffffffffffffffffffff16610286565b34801561011057600080fd5b506101446004803603602081101561012757600080fd5b503573ffffffffffffffffffffffffffffffffffffffff166102a8565b604080519115158252519081900360200190f35b34801561016457600080fd5b506101446004803603604081101561017b57600080fd5b508035906020013573ffffffffffffffffffffffffffffffffffffffff166102c1565b3480156101aa57600080fd5b506100bc600480360360208110156101c157600080fd5b503573ffffffffffffffffffffffffffffffffffffffff166102f7565b3480156101ea57600080fd5b506100bc610314565b3480156101ff57600080fd5b506100bc6004803603604081101561021657600080fd5b508035906020013573ffffffffffffffffffffffffffffffffffffffff1661031f565b34801561024557600080fd5b506100bc6004803603602081101561025c57600080fd5b503573ffffffffffffffffffffffffffffffffffffffff16610344565b6102838133610456565b50565b61028f336102a8565b151561029a57600080fd5b6102a48282610456565b5050565b60006102bb60338363ffffffff6104bb16565b92915050565b60006102cc826102a8565b806102f0575060008381526034602052604090206102f0908363ffffffff6104bb16565b9392505050565b610300336102a8565b151561030b57600080fd5b61028381610594565b61031d336105e9565b565b8161032a81336102c1565b151561033557600080fd5b61033f838361063e565b505050565b600054610100900460ff168061035d575061035d6106a3565b8061036b575060005460ff16155b15156103fe57604080517f08c379a000000000000000000000000000000000000000000000000000000000815260206004820152602e60248201527f436f6e747261637420696e7374616e63652068617320616c726561647920626560448201527f656e20696e697469616c697a6564000000000000000000000000000000000000606482015290519081900360840190fd5b600054610100900460ff16158015610429576000805460ff1961ff0019909116610100171660011790555b610432826102a8565b15156104415761044182610594565b80156102a4576000805461ff00191690555050565b6000828152603460205260409020610474908263ffffffff6106a916565b60405173ffffffffffffffffffffffffffffffffffffffff82169083907fb6882c4d609d560f6d57e78e73dd96027f0d9852739b0b922537a6dd3c8e944c90600090a35050565b600073ffffffffffffffffffffffffffffffffffffffff8216151561056757604080517f08c379a000000000000000000000000000000000000000000000000000000000815260206004820152602260248201527f526f6c65733a206163636f756e7420697320746865207a65726f20616464726560448201527f7373000000000000000000000000000000000000000000000000000000000000606482015290519081900360840190fd5b5073ffffffffffffffffffffffffffffffffffffffff166000908152602091909152604090205460ff1690565b6105a560338263ffffffff61077516565b60405173ffffffffffffffffffffffffffffffffffffffff8216907f44d6d25963f097ad14f29f06854a01f575648a1ef82f30e562ccd3889717e33990600090a250565b6105fa60338263ffffffff6106a916565b60405173ffffffffffffffffffffffffffffffffffffffff8216907fa3b62bc36326052d97ea62d63c3d60308ed4c3ea8ac079dd8499f1e9c4f80c0f90600090a250565b600082815260346020526040902061065c908263ffffffff61077516565b60405173ffffffffffffffffffffffffffffffffffffffff82169083907fe1bd660d9f7c60e6fb12dd6479fdde12d21fc96385dc7b9b022c0b2f319e739190600090a35050565b303b1590565b6106b382826104bb565b151561074657604080517f08c379a000000000000000000000000000000000000000000000000000000000815260206004820152602160248201527f526f6c65733a206163636f756e7420646f6573206e6f74206861766520726f6c60448201527f6500000000000000000000000000000000000000000000000000000000000000606482015290519081900360840190fd5b73ffffffffffffffffffffffffffffffffffffffff16600090815260209190915260409020805460ff19169055565b61077f82826104bb565b156107eb57604080517f08c379a000000000000000000000000000000000000000000000000000000000815260206004820152601f60248201527f526f6c65733a206163636f756e7420616c72656164792068617320726f6c6500604482015290519081900360640190fd5b73ffffffffffffffffffffffffffffffffffffffff16600090815260209190915260409020805460ff1916600117905556fea165627a7a7230582008132c59f4531b410f7d19c28fff822bc019310ca6a53feae280474bf89ebd5f0029",
  "linkReferences": {},
  "deployedLinkReferences": {}
}