{
  "_format": "hh-sol-artifact-1",
  "contractName": "PoapPausable",
  "sourceName": "contracts/PoapPausable.sol",
  "abi": [
    {
      "constant": false,
      "inputs": [
        {
          "name": "eventId",
          "type": "uint256"
        }
      ],
      "name": "renounceEventMinter",
      "outputs": [],
      "payable": false,
      "stateMutability": "nonpayable",
      "type": "function"
    },
    {
      "constant": false,
      "inputs": [
        {
          "name": "eventId",
          "type": "uint256"
        },
        {
          "name": "account",
          "type": "address"
        }
      ],
      "name": "removeEventMinter",
      "outputs": [],
      "payable": false,
      "stateMutability": "nonpayable",
      "type": "function"
    },
    {
      "constant": true,
      "inputs": [
        {
          "name": "account",
          "type": "address"
        }
      ],
      "name": "isAdmin",
      "outputs": [
        {
          "name": "",
          "type": "bool"
        }
      ],
      "payable": false,
      "stateMutability": "view",
      "type": "function"
    },
    {
      "constant": true,
      "inputs": [
        {
          "name": "eventId",
          "type": "uint256"
        },
        {
          "name": "account",
          "type": "address"
        }
      ],
      "name": "isEventMinter",
      "outputs": [
        {
          "name": "",
          "type": "bool"
        }
      ],
      "payable": false,
      "stateMutability": "view",
      "type": "function"
    },
    {
      "constant": false,
      "inputs": [],
      "name": "unpause",
      "outputs": [],
      "payable": false,
      "stateMutability": "nonpayable",
      "type": "function"
    },
    {
      "constant": true,
      "inputs": [],
      "name": "paused",
      "outputs": [
        {
          "name": "",
          "type": "bool"
        }
      ],
      "payable": false,
      "stateMutability": "view",
      "type": "function"
    },
    {
      "constant": false,
      "inputs": [
        {
          "name": "account",
          "type": "address"
        }
      ],
      "name": "addAdmin",
      "outputs": [],
      "payable": false,
      "stateMutability": "nonpayable",
      "type": "function"
    },
    {
      "constant": false,
      "inputs": [],
      "name": "initialize",
      "outputs": [],
      "payable": false,
      "stateMutability": "nonpayable",
      "type": "function"
    },
    {
      "constant": false,
      "inputs": [],
      "name": "pause",
      "outputs": [],
      "payable": false,
      "stateMutability": "nonpayable",
      "type": "function"
    },
    {
      "constant": false,
      "inputs": [],
      "name": "renounceAdmin",
      "outputs": [],
      "payable": false,
      "stateMutability": "nonpayable",
      "type": "function"
    },
    {
      "constant": false,
      "inputs": [
        {
          "name": "eventId",
          "type": "uint256"
        },
        {
          "name": "account",
          "type": "address"
        }
      ],
      "name": "addEventMinter",
      "outputs": [],
      "payable": false,
      "stateMutability": "nonpayable",
      "type": "function"
    },
    {
      "constant": false,
      "inputs": [
        {
          "name": "sender",
          "type": "address"
        }
      ],
      "name": "initialize",
      "outputs": [],
      "payable": false,
      "stateMutability": "nonpayable",
      "type": "function"
    },
    {
      "anonymous": false,
      "inputs": [
        {
          "indexed": false,
          "name": "account",
          "type": "address"
        }
      ],
      "name": "Paused",
      "type": "event"
    },
    {
      "anonymous": false,
      "inputs": [
        {
          "indexed": false,
          "name": "account",
          "type": "address"
        }
      ],
      "name": "Unpaused",
      "type": "event"
    },
    {
      "anonymous": false,
      "inputs": [
        {
          "indexed": true,
          "name": "account",
          "type": "address"
        }
      ],
      "name": "AdminAdded",
      "type": "event"
    },
    {
      "anonymous": false,
      "inputs": [
        {
          "indexed": true,
          "name": "account",
          "type": "address"
        }
      ],
      "name": "AdminRemoved",
      "type": "event"
    },
    {
      "anonymous": false,
      "inputs": [
        {
          "indexed": true,
          "name": "eventId",
          "type": "uint256"
        },
        {
          "indexed": true,
          "name": "account",
          "type": "address"
        }
      ],
      "name": "EventMinterAdded",
      "type": "event"
    },
    {
      "anonymous": false,
      "inputs": [
        {
          "indexed": true,
          "name": "eventId",
          "type": "uint256"
        },
        {
          "indexed": true,
          "name": "account",
          "type": "address"
        }
      ],
      "name": "EventMinterRemoved",
      "type": "event"
    }
  ],
  "bytecode": "0x608060405234801561001057600080fd5b50610a9f806100206000396000f3fe6080604052600436106100b95763ffffffff7c010000000000000000000000000000000000000000000000000000000060003504166302c37ddc81146100be578063166c4b05146100ea57806324d7806c1461013057806328db38b4146101845780633f4ba83a146101ca5780635c975abb146101df57806370480275146101f45780638129fc1c146102345780638456cb59146102495780638bad0c0a1461025e5780639cd3cad614610273578063c4d66de8146102b9575b600080fd5b3480156100ca57600080fd5b506100e8600480360360208110156100e157600080fd5b50356102f9565b005b3480156100f657600080fd5b506100e86004803603604081101561010d57600080fd5b508035906020013573ffffffffffffffffffffffffffffffffffffffff16610306565b34801561013c57600080fd5b506101706004803603602081101561015357600080fd5b503573ffffffffffffffffffffffffffffffffffffffff16610328565b604080519115158252519081900360200190f35b34801561019057600080fd5b50610170600480360360408110156101a757600080fd5b508035906020013573ffffffffffffffffffffffffffffffffffffffff16610341565b3480156101d657600080fd5b506100e8610377565b3480156101eb57600080fd5b506101706103db565b34801561020057600080fd5b506100e86004803603602081101561021757600080fd5b503573ffffffffffffffffffffffffffffffffffffffff166103e4565b34801561024057600080fd5b506100e8610401565b34801561025557600080fd5b506100e8610504565b34801561026a57600080fd5b506100e861056a565b34801561027f57600080fd5b506100e86004803603604081101561029657600080fd5b508035906020013573ffffffffffffffffffffffffffffffffffffffff16610575565b3480156102c557600080fd5b506100e8600480360360208110156102dc57600080fd5b503573ffffffffffffffffffffffffffffffffffffffff1661059a565b61030381336106ac565b50565b61030f33610328565b151561031a57600080fd5b61032482826106ac565b5050565b600061033b60338363ffffffff61071116565b92915050565b600061034c82610328565b8061037057506000838152603460205260409020610370908363ffffffff61071116565b9392505050565b61038033610328565b151561038b57600080fd5b60675460ff16151561039c57600080fd5b6067805460ff191690556040805133815290517f5db9ee0a495bf2e6ff9c91a7834c1ba4fdd244a5e8aa4e537bd38aeae4b073aa9181900360200190a1565b60675460ff1690565b6103ed33610328565b15156103f857600080fd5b610303816107ea565b600054610100900460ff168061041a575061041a61083f565b80610428575060005460ff16155b15156104bb57604080517f08c379a000000000000000000000000000000000000000000000000000000000815260206004820152602e60248201527f436f6e747261637420696e7374616e63652068617320616c726561647920626560448201527f656e20696e697469616c697a6564000000000000000000000000000000000000606482015290519081900360840190fd5b600054610100900460ff161580156104e6576000805460ff1961ff0019909116610100171660011790555b6067805460ff191690558015610303576000805461ff001916905550565b61050d33610328565b151561051857600080fd5b60675460ff161561052857600080fd5b6067805460ff191660011790556040805133815290517f62e78cea01bee320cd4e420270b5ea74000d11b0c9f74754ebdbfc544b05a2589181900360200190a1565b61057333610845565b565b816105808133610341565b151561058b57600080fd5b610595838361089a565b505050565b600054610100900460ff16806105b357506105b361083f565b806105c1575060005460ff16155b151561065457604080517f08c379a000000000000000000000000000000000000000000000000000000000815260206004820152602e60248201527f436f6e747261637420696e7374616e63652068617320616c726561647920626560448201527f656e20696e697469616c697a6564000000000000000000000000000000000000606482015290519081900360840190fd5b600054610100900460ff1615801561067f576000805460ff1961ff0019909116610100171660011790555b61068882610328565b151561069757610697826107ea565b8015610324576000805461ff00191690555050565b60008281526034602052604090206106ca908263ffffffff6108ff16565b60405173ffffffffffffffffffffffffffffffffffffffff82169083907fb6882c4d609d560f6d57e78e73dd96027f0d9852739b0b922537a6dd3c8e944c90600090a35050565b600073ffffffffffffffffffffffffffffffffffffffff821615156107bd57604080517f08c379a000000000000000000000000000000000000000000000000000000000815260206004820152602260248201527f526f6c65733a206163636f756e7420697320746865207a65726f20616464726560448201527f7373000000000000000000000000000000000000000000000000000000000000606482015290519081900360840190fd5b5073ffffffffffffffffffffffffffffffffffffffff166000908152602091909152604090205460ff1690565b6107fb60338263ffffffff6109cb16565b60405173ffffffffffffffffffffffffffffffffffffffff8216907f44d6d25963f097ad14f29f06854a01f575648a1ef82f30e562ccd3889717e33990600090a250565b303b1590565b61085660338263ffffffff6108ff16565b60405173ffffffffffffffffffffffffffffffffffffffff8216907fa3b62bc36326052d97ea62d63c3d60308ed4c3ea8ac079dd8499f1e9c4f80c0f90600090a250565b60008281526034602052604090206108b8908263ffffffff6109cb16565b60405173ffffffffffffffffffffffffffffffffffffffff82169083907fe1bd660d9f7c60e6fb12dd6479fdde12d21fc96385dc7b9b022c0b2f319e739190600090a35050565b6109098282610711565b151561099c57604080517f08c379a000000000000000000000000000000000000000000000000000000000815260206004820152602160248201527f526f6c65733a206163636f756e7420646f6573206e6f74206861766520726f6c60448201527f6500000000000000000000000000000000000000000000000000000000000000606482015290519081900360840190fd5b73ffffffffffffffffffffffffffffffffffffffff16600090815260209190915260409020805460ff19169055565b6109d58282610711565b15610a4157604080517f08c379a000000000000000000000000000000000000000000000000000000000815260206004820152601f60248201527f526f6c65733a206163636f756e7420616c72656164792068617320726f6c6500604482015290519081900360640190fd5b73ffffffffffffffffffffffffffffffffffffffff16600090815260209190915260409020805460ff1916600117905556fea165627a7a723058201b316332f9f0c7e24ebaa9ba884336551e12d8c5feb15a21fe65fa0fc5cda0cf0029",
  "linkReferences": {},
  "deployedLinkReferences": {}
}